ARM GAS  /tmp/ccKn6e2L.s 			page 1


   1              		.syntax unified
   2              		.cpu cortex-m3
   3              		.fpu softvfp
   4              		.eabi_attribute 20, 1	@ Tag_ABI_FP_denormal
   5              		.eabi_attribute 21, 1	@ Tag_ABI_FP_exceptions
   6              		.eabi_attribute 23, 3	@ Tag_ABI_FP_number_model
   7              		.eabi_attribute 24, 1	@ Tag_ABI_align8_needed
   8              		.eabi_attribute 25, 1	@ Tag_ABI_align8_preserved
   9              		.eabi_attribute 26, 1	@ Tag_ABI_enum_size
  10              		.eabi_attribute 30, 6	@ Tag_ABI_optimization_goals
  11              		.eabi_attribute 34, 1	@ Tag_CPU_unaligned_access
  12              		.eabi_attribute 18, 4	@ Tag_ABI_PCS_wchar_t
  13              		.file	"system_stm32f10x.c"
  14              	@ GNU C99 (GNU Tools for ARM Embedded Processors) version 5.2.1 20151202 (release) [ARM/embedded-5-
  15              	@	compiled by GNU C version 4.7.4, GMP version 4.3.2, MPFR version 2.4.2, MPC version 0.8.1
  16              	@ GGC heuristics: --param ggc-min-expand=100 --param ggc-min-heapsize=131072
  17              	@ options passed:  -I . -I ../Marshal/include
  18              	@ -I ../Libraries/CMSIS/CM3/CoreSupport/
  19              	@ -I ../Libraries/CMSIS/CM3/DeviceSupport/ST/STM32F10x/
  20              	@ -I ../Libraries/STM32F10x_StdPeriph_Driver/inc/ -I ../Include/
  21              	@ -iprefix /usr/local/gcc-arm-none-eabi-5_2-2015q4/bin/../lib/gcc/arm-none-eabi/5.2.1/
  22              	@ -isysroot /usr/local/gcc-arm-none-eabi-5_2-2015q4/bin/../arm-none-eabi
  23              	@ -MD Build/Obj/Debug/system_stm32f10x.d -MF .dep/system_stm32f10x.o.d -MP
  24              	@ -MQ Build/Obj/Debug/system_stm32f10x.o -D__USES_INITFINI__
  25              	@ -D CORE_FAMILY_arm -D STM32F10X_HD -D PRIME_DEBUG -D RUN_FROM_FLASH=1
  26              	@ ../src/system_stm32f10x.c -mcpu=cortex-m3 -mfpu=fpv4-sp-d16
  27              	@ -mfloat-abi=soft -mthumb-interwork -mthumb
  28              	@ -auxbase-strip Build/Obj/Debug/system_stm32f10x.o -gdwarf-2 -O0 -Wall
  29              	@ -Wno-cpp -std=gnu99 -fomit-frame-pointer -fverbose-asm
  30              	@ options enabled:  -faggressive-loop-optimizations -fauto-inc-dec
  31              	@ -fchkp-check-incomplete-type -fchkp-check-read -fchkp-check-write
  32              	@ -fchkp-instrument-calls -fchkp-narrow-bounds -fchkp-optimize
  33              	@ -fchkp-store-bounds -fchkp-use-static-bounds
  34              	@ -fchkp-use-static-const-bounds -fchkp-use-wrappers -fcommon
  35              	@ -fdelete-null-pointer-checks -fdwarf2-cfi-asm -fearly-inlining
  36              	@ -feliminate-unused-debug-types -ffunction-cse -fgcse-lm -fgnu-runtime
  37              	@ -fgnu-unique -fident -finline-atomics -fira-hoist-pressure
  38              	@ -fira-share-save-slots -fira-share-spill-slots -fivopts
  39              	@ -fkeep-static-consts -fleading-underscore -flifetime-dse
  40              	@ -flto-odr-type-merging -fmath-errno -fmerge-debug-strings
  41              	@ -fomit-frame-pointer -fpeephole -fprefetch-loop-arrays
  42              	@ -freg-struct-return -fsched-critical-path-heuristic
  43              	@ -fsched-dep-count-heuristic -fsched-group-heuristic -fsched-interblock
  44              	@ -fsched-last-insn-heuristic -fsched-rank-heuristic -fsched-spec
  45              	@ -fsched-spec-insn-heuristic -fsched-stalled-insns-dep
  46              	@ -fsemantic-interposition -fshow-column -fsigned-zeros
  47              	@ -fsplit-ivs-in-unroller -fstdarg-opt -fstrict-volatile-bitfields
  48              	@ -fsync-libcalls -ftrapping-math -ftree-coalesce-vars -ftree-cselim
  49              	@ -ftree-forwprop -ftree-loop-if-convert -ftree-loop-im -ftree-loop-ivcanon
  50              	@ -ftree-loop-optimize -ftree-parallelize-loops= -ftree-phiprop
  51              	@ -ftree-reassoc -ftree-scev-cprop -funit-at-a-time -fverbose-asm
  52              	@ -fzero-initialized-in-bss -masm-syntax-unified -mfix-cortex-m3-ldrd
  53              	@ -mlittle-endian -mpic-data-is-text-relative -msched-prolog -mthumb
  54              	@ -munaligned-access -mvectorize-with-neon-quad
  55              	
  56              		.text
  57              	.Ltext0:
ARM GAS  /tmp/ccKn6e2L.s 			page 2


  58              		.cfi_sections	.debug_frame
  59              		.global	SystemCoreClock
  60              		.data
  61              		.align	2
  62              		.type	SystemCoreClock, %object
  63              		.size	SystemCoreClock, 4
  64              	SystemCoreClock:
  65 0000 00A24A04 		.word	72000000
  66              		.global	AHBPrescTable
  67              		.align	2
  68              		.type	AHBPrescTable, %object
  69              		.size	AHBPrescTable, 16
  70              	AHBPrescTable:
  71 0004 00       		.byte	0
  72 0005 00       		.byte	0
  73 0006 00       		.byte	0
  74 0007 00       		.byte	0
  75 0008 00       		.byte	0
  76 0009 00       		.byte	0
  77 000a 00       		.byte	0
  78 000b 00       		.byte	0
  79 000c 01       		.byte	1
  80 000d 02       		.byte	2
  81 000e 03       		.byte	3
  82 000f 04       		.byte	4
  83 0010 06       		.byte	6
  84 0011 07       		.byte	7
  85 0012 08       		.byte	8
  86 0013 09       		.byte	9
  87              		.text
  88              		.align	2
  89              		.global	SystemInit
  90              		.thumb
  91              		.thumb_func
  92              		.type	SystemInit, %function
  93              	SystemInit:
  94              	.LFB29:
  95              		.file 1 "../src/system_stm32f10x.c"
   1:../src/system_stm32f10x.c **** /**
   2:../src/system_stm32f10x.c ****   ******************************************************************************
   3:../src/system_stm32f10x.c ****   * @file    system_stm32f10x.c
   4:../src/system_stm32f10x.c ****   * @author  MCD Application Team
   5:../src/system_stm32f10x.c ****   * @version V3.5.0
   6:../src/system_stm32f10x.c ****   * @date    11-March-2011
   7:../src/system_stm32f10x.c ****   * @brief   CMSIS Cortex-M3 Device Peripheral Access Layer System Source File.
   8:../src/system_stm32f10x.c ****   * 
   9:../src/system_stm32f10x.c ****   * 1.  This file provides two functions and one global variable to be called from 
  10:../src/system_stm32f10x.c ****   *     user application:
  11:../src/system_stm32f10x.c ****   *      - SystemInit(): Setups the system clock (System clock source, PLL Multiplier
  12:../src/system_stm32f10x.c ****   *                      factors, AHB/APBx prescalers and Flash settings). 
  13:../src/system_stm32f10x.c ****   *                      This function is called at startup just after reset and 
  14:../src/system_stm32f10x.c ****   *                      before branch to main program. This call is made inside
  15:../src/system_stm32f10x.c ****   *                      the "startup_stm32f10x_xx.s" file.
  16:../src/system_stm32f10x.c ****   *
  17:../src/system_stm32f10x.c ****   *      - SystemCoreClock variable: Contains the core clock (HCLK), it can be used
  18:../src/system_stm32f10x.c ****   *                                  by the user application to setup the SysTick 
  19:../src/system_stm32f10x.c ****   *                                  timer or configure other parameters.
ARM GAS  /tmp/ccKn6e2L.s 			page 3


  20:../src/system_stm32f10x.c ****   *                                     
  21:../src/system_stm32f10x.c ****   *      - SystemCoreClockUpdate(): Updates the variable SystemCoreClock and must
  22:../src/system_stm32f10x.c ****   *                                 be called whenever the core clock is changed
  23:../src/system_stm32f10x.c ****   *                                 during program execution.
  24:../src/system_stm32f10x.c ****   *
  25:../src/system_stm32f10x.c ****   * 2. After each device reset the HSI (8 MHz) is used as system clock source.
  26:../src/system_stm32f10x.c ****   *    Then SystemInit() function is called, in "startup_stm32f10x_xx.s" file, to
  27:../src/system_stm32f10x.c ****   *    configure the system clock before to branch to main program.
  28:../src/system_stm32f10x.c ****   *
  29:../src/system_stm32f10x.c ****   * 3. If the system clock source selected by user fails to startup, the SystemInit()
  30:../src/system_stm32f10x.c ****   *    function will do nothing and HSI still used as system clock source. User can 
  31:../src/system_stm32f10x.c ****   *    add some code to deal with this issue inside the SetSysClock() function.
  32:../src/system_stm32f10x.c ****   *
  33:../src/system_stm32f10x.c ****   * 4. The default value of HSE crystal is set to 8 MHz (or 25 MHz, depedning on
  34:../src/system_stm32f10x.c ****   *    the product used), refer to "HSE_VALUE" define in "stm32f10x.h" file. 
  35:../src/system_stm32f10x.c ****   *    When HSE is used as system clock source, directly or through PLL, and you
  36:../src/system_stm32f10x.c ****   *    are using different crystal you have to adapt the HSE value to your own
  37:../src/system_stm32f10x.c ****   *    configuration.
  38:../src/system_stm32f10x.c ****   *        
  39:../src/system_stm32f10x.c ****   ******************************************************************************
  40:../src/system_stm32f10x.c ****   * @attention
  41:../src/system_stm32f10x.c ****   *
  42:../src/system_stm32f10x.c ****   * THE PRESENT FIRMWARE WHICH IS FOR GUIDANCE ONLY AIMS AT PROVIDING CUSTOMERS
  43:../src/system_stm32f10x.c ****   * WITH CODING INFORMATION REGARDING THEIR PRODUCTS IN ORDER FOR THEM TO SAVE
  44:../src/system_stm32f10x.c ****   * TIME. AS A RESULT, STMICROELECTRONICS SHALL NOT BE HELD LIABLE FOR ANY
  45:../src/system_stm32f10x.c ****   * DIRECT, INDIRECT OR CONSEQUENTIAL DAMAGES WITH RESPECT TO ANY CLAIMS ARISING
  46:../src/system_stm32f10x.c ****   * FROM THE CONTENT OF SUCH FIRMWARE AND/OR THE USE MADE BY CUSTOMERS OF THE
  47:../src/system_stm32f10x.c ****   * CODING INFORMATION CONTAINED HEREIN IN CONNECTION WITH THEIR PRODUCTS.
  48:../src/system_stm32f10x.c ****   *
  49:../src/system_stm32f10x.c ****   * <h2><center>&copy; COPYRIGHT 2011 STMicroelectronics</center></h2>
  50:../src/system_stm32f10x.c ****   ******************************************************************************
  51:../src/system_stm32f10x.c ****   */
  52:../src/system_stm32f10x.c **** 
  53:../src/system_stm32f10x.c **** /** @addtogroup CMSIS
  54:../src/system_stm32f10x.c ****   * @{
  55:../src/system_stm32f10x.c ****   */
  56:../src/system_stm32f10x.c **** 
  57:../src/system_stm32f10x.c **** /** @addtogroup stm32f10x_system
  58:../src/system_stm32f10x.c ****   * @{
  59:../src/system_stm32f10x.c ****   */  
  60:../src/system_stm32f10x.c ****   
  61:../src/system_stm32f10x.c **** /** @addtogroup STM32F10x_System_Private_Includes
  62:../src/system_stm32f10x.c ****   * @{
  63:../src/system_stm32f10x.c ****   */
  64:../src/system_stm32f10x.c **** 
  65:../src/system_stm32f10x.c **** #include "stm32f10x.h"
  66:../src/system_stm32f10x.c **** 
  67:../src/system_stm32f10x.c **** /**
  68:../src/system_stm32f10x.c ****   * @}
  69:../src/system_stm32f10x.c ****   */
  70:../src/system_stm32f10x.c **** 
  71:../src/system_stm32f10x.c **** /** @addtogroup STM32F10x_System_Private_TypesDefinitions
  72:../src/system_stm32f10x.c ****   * @{
  73:../src/system_stm32f10x.c ****   */
  74:../src/system_stm32f10x.c **** 
  75:../src/system_stm32f10x.c **** /**
  76:../src/system_stm32f10x.c ****   * @}
ARM GAS  /tmp/ccKn6e2L.s 			page 4


  77:../src/system_stm32f10x.c ****   */
  78:../src/system_stm32f10x.c **** 
  79:../src/system_stm32f10x.c **** /** @addtogroup STM32F10x_System_Private_Defines
  80:../src/system_stm32f10x.c ****   * @{
  81:../src/system_stm32f10x.c ****   */
  82:../src/system_stm32f10x.c **** 
  83:../src/system_stm32f10x.c **** /*!< Uncomment the line corresponding to the desired System clock (SYSCLK)
  84:../src/system_stm32f10x.c ****    frequency (after reset the HSI is used as SYSCLK source)
  85:../src/system_stm32f10x.c ****    
  86:../src/system_stm32f10x.c ****    IMPORTANT NOTE:
  87:../src/system_stm32f10x.c ****    ============== 
  88:../src/system_stm32f10x.c ****    1. After each device reset the HSI is used as System clock source.
  89:../src/system_stm32f10x.c **** 
  90:../src/system_stm32f10x.c ****    2. Please make sure that the selected System clock doesn't exceed your device's
  91:../src/system_stm32f10x.c ****       maximum frequency.
  92:../src/system_stm32f10x.c ****       
  93:../src/system_stm32f10x.c ****    3. If none of the define below is enabled, the HSI is used as System clock
  94:../src/system_stm32f10x.c ****     source.
  95:../src/system_stm32f10x.c **** 
  96:../src/system_stm32f10x.c ****    4. The System clock configuration functions provided within this file assume that:
  97:../src/system_stm32f10x.c ****         - For Low, Medium and High density Value line devices an external 8MHz 
  98:../src/system_stm32f10x.c ****           crystal is used to drive the System clock.
  99:../src/system_stm32f10x.c ****         - For Low, Medium and High density devices an external 8MHz crystal is
 100:../src/system_stm32f10x.c ****           used to drive the System clock.
 101:../src/system_stm32f10x.c ****         - For Connectivity line devices an external 25MHz crystal is used to drive
 102:../src/system_stm32f10x.c ****           the System clock.
 103:../src/system_stm32f10x.c ****      If you are using different crystal you have to adapt those functions accordingly.
 104:../src/system_stm32f10x.c ****     */
 105:../src/system_stm32f10x.c ****     
 106:../src/system_stm32f10x.c **** #if defined (STM32F10X_LD_VL) || (defined STM32F10X_MD_VL) || (defined STM32F10X_HD_VL)
 107:../src/system_stm32f10x.c **** /* #define SYSCLK_FREQ_HSE    HSE_VALUE */
 108:../src/system_stm32f10x.c ****  #define SYSCLK_FREQ_24MHz  24000000
 109:../src/system_stm32f10x.c **** #else
 110:../src/system_stm32f10x.c **** /* #define SYSCLK_FREQ_HSE    HSE_VALUE */
 111:../src/system_stm32f10x.c **** /* #define SYSCLK_FREQ_24MHz  24000000 */ 
 112:../src/system_stm32f10x.c **** /* #define SYSCLK_FREQ_36MHz  36000000 */
 113:../src/system_stm32f10x.c **** /* #define SYSCLK_FREQ_48MHz  48000000 */
 114:../src/system_stm32f10x.c **** /* #define SYSCLK_FREQ_56MHz  56000000 */
 115:../src/system_stm32f10x.c **** #define SYSCLK_FREQ_72MHz  72000000
 116:../src/system_stm32f10x.c **** #endif
 117:../src/system_stm32f10x.c **** 
 118:../src/system_stm32f10x.c **** /*!< Uncomment the following line if you need to use external SRAM mounted
 119:../src/system_stm32f10x.c ****      on STM3210E-EVAL board (STM32 High density and XL-density devices) or on 
 120:../src/system_stm32f10x.c ****      STM32100E-EVAL board (STM32 High-density value line devices) as data memory */ 
 121:../src/system_stm32f10x.c **** #if defined (STM32F10X_HD) || (defined STM32F10X_XL) || (defined STM32F10X_HD_VL)
 122:../src/system_stm32f10x.c **** /* #define DATA_IN_ExtSRAM */
 123:../src/system_stm32f10x.c **** #endif
 124:../src/system_stm32f10x.c **** 
 125:../src/system_stm32f10x.c **** /*!< Uncomment the following line if you need to relocate your vector Table in
 126:../src/system_stm32f10x.c ****      Internal SRAM. */ 
 127:../src/system_stm32f10x.c **** /* #define VECT_TAB_SRAM */
 128:../src/system_stm32f10x.c **** #define VECT_TAB_OFFSET  0x0 /*!< Vector Table base offset field. 
 129:../src/system_stm32f10x.c ****                                   This value must be a multiple of 0x200. */
 130:../src/system_stm32f10x.c **** 
 131:../src/system_stm32f10x.c **** 
 132:../src/system_stm32f10x.c **** /**
 133:../src/system_stm32f10x.c ****   * @}
ARM GAS  /tmp/ccKn6e2L.s 			page 5


 134:../src/system_stm32f10x.c ****   */
 135:../src/system_stm32f10x.c **** 
 136:../src/system_stm32f10x.c **** /** @addtogroup STM32F10x_System_Private_Macros
 137:../src/system_stm32f10x.c ****   * @{
 138:../src/system_stm32f10x.c ****   */
 139:../src/system_stm32f10x.c **** 
 140:../src/system_stm32f10x.c **** /**
 141:../src/system_stm32f10x.c ****   * @}
 142:../src/system_stm32f10x.c ****   */
 143:../src/system_stm32f10x.c **** 
 144:../src/system_stm32f10x.c **** /** @addtogroup STM32F10x_System_Private_Variables
 145:../src/system_stm32f10x.c ****   * @{
 146:../src/system_stm32f10x.c ****   */
 147:../src/system_stm32f10x.c **** 
 148:../src/system_stm32f10x.c **** /*******************************************************************************
 149:../src/system_stm32f10x.c **** *  Clock Definitions
 150:../src/system_stm32f10x.c **** *******************************************************************************/
 151:../src/system_stm32f10x.c **** #ifdef SYSCLK_FREQ_HSE
 152:../src/system_stm32f10x.c ****   uint32_t SystemCoreClock         = SYSCLK_FREQ_HSE;        /*!< System Clock Frequency (Core Cloc
 153:../src/system_stm32f10x.c **** #elif defined SYSCLK_FREQ_24MHz
 154:../src/system_stm32f10x.c ****   uint32_t SystemCoreClock         = SYSCLK_FREQ_24MHz;        /*!< System Clock Frequency (Core Cl
 155:../src/system_stm32f10x.c **** #elif defined SYSCLK_FREQ_36MHz
 156:../src/system_stm32f10x.c ****   uint32_t SystemCoreClock         = SYSCLK_FREQ_36MHz;        /*!< System Clock Frequency (Core Cl
 157:../src/system_stm32f10x.c **** #elif defined SYSCLK_FREQ_48MHz
 158:../src/system_stm32f10x.c ****   uint32_t SystemCoreClock         = SYSCLK_FREQ_48MHz;        /*!< System Clock Frequency (Core Cl
 159:../src/system_stm32f10x.c **** #elif defined SYSCLK_FREQ_56MHz
 160:../src/system_stm32f10x.c ****   uint32_t SystemCoreClock         = SYSCLK_FREQ_56MHz;        /*!< System Clock Frequency (Core Cl
 161:../src/system_stm32f10x.c **** #elif defined SYSCLK_FREQ_72MHz
 162:../src/system_stm32f10x.c ****   uint32_t SystemCoreClock         = SYSCLK_FREQ_72MHz;        /*!< System Clock Frequency (Core Cl
 163:../src/system_stm32f10x.c **** #else /*!< HSI Selected as System Clock source */
 164:../src/system_stm32f10x.c ****   uint32_t SystemCoreClock         = HSI_VALUE;        /*!< System Clock Frequency (Core Clock) */
 165:../src/system_stm32f10x.c **** #endif
 166:../src/system_stm32f10x.c **** 
 167:../src/system_stm32f10x.c **** __I uint8_t AHBPrescTable[16] = {0, 0, 0, 0, 0, 0, 0, 0, 1, 2, 3, 4, 6, 7, 8, 9};
 168:../src/system_stm32f10x.c **** /**
 169:../src/system_stm32f10x.c ****   * @}
 170:../src/system_stm32f10x.c ****   */
 171:../src/system_stm32f10x.c **** 
 172:../src/system_stm32f10x.c **** /** @addtogroup STM32F10x_System_Private_FunctionPrototypes
 173:../src/system_stm32f10x.c ****   * @{
 174:../src/system_stm32f10x.c ****   */
 175:../src/system_stm32f10x.c **** 
 176:../src/system_stm32f10x.c **** static void SetSysClock(void);
 177:../src/system_stm32f10x.c **** 
 178:../src/system_stm32f10x.c **** #ifdef SYSCLK_FREQ_HSE
 179:../src/system_stm32f10x.c ****   static void SetSysClockToHSE(void);
 180:../src/system_stm32f10x.c **** #elif defined SYSCLK_FREQ_24MHz
 181:../src/system_stm32f10x.c ****   static void SetSysClockTo24(void);
 182:../src/system_stm32f10x.c **** #elif defined SYSCLK_FREQ_36MHz
 183:../src/system_stm32f10x.c ****   static void SetSysClockTo36(void);
 184:../src/system_stm32f10x.c **** #elif defined SYSCLK_FREQ_48MHz
 185:../src/system_stm32f10x.c ****   static void SetSysClockTo48(void);
 186:../src/system_stm32f10x.c **** #elif defined SYSCLK_FREQ_56MHz
 187:../src/system_stm32f10x.c ****   static void SetSysClockTo56(void);  
 188:../src/system_stm32f10x.c **** #elif defined SYSCLK_FREQ_72MHz
 189:../src/system_stm32f10x.c ****   static void SetSysClockTo72(void);
 190:../src/system_stm32f10x.c **** #endif
ARM GAS  /tmp/ccKn6e2L.s 			page 6


 191:../src/system_stm32f10x.c **** 
 192:../src/system_stm32f10x.c **** #ifdef DATA_IN_ExtSRAM
 193:../src/system_stm32f10x.c ****   static void SystemInit_ExtMemCtl(void); 
 194:../src/system_stm32f10x.c **** #endif /* DATA_IN_ExtSRAM */
 195:../src/system_stm32f10x.c **** 
 196:../src/system_stm32f10x.c **** /**
 197:../src/system_stm32f10x.c ****   * @}
 198:../src/system_stm32f10x.c ****   */
 199:../src/system_stm32f10x.c **** 
 200:../src/system_stm32f10x.c **** /** @addtogroup STM32F10x_System_Private_Functions
 201:../src/system_stm32f10x.c ****   * @{
 202:../src/system_stm32f10x.c ****   */
 203:../src/system_stm32f10x.c **** 
 204:../src/system_stm32f10x.c **** /**
 205:../src/system_stm32f10x.c ****   * @brief  Setup the microcontroller system
 206:../src/system_stm32f10x.c ****   *         Initialize the Embedded Flash Interface, the PLL and update the 
 207:../src/system_stm32f10x.c ****   *         SystemCoreClock variable.
 208:../src/system_stm32f10x.c ****   * @note   This function should be used only after reset.
 209:../src/system_stm32f10x.c ****   * @param  None
 210:../src/system_stm32f10x.c ****   * @retval None
 211:../src/system_stm32f10x.c ****   */
 212:../src/system_stm32f10x.c **** void SystemInit (void)
 213:../src/system_stm32f10x.c **** {
  96              		.loc 1 213 0
  97              		.cfi_startproc
  98              		@ args = 0, pretend = 0, frame = 0
  99              		@ frame_needed = 0, uses_anonymous_args = 0
 100 0000 08B5     		push	{r3, lr}	@
 101              	.LCFI0:
 102              		.cfi_def_cfa_offset 8
 103              		.cfi_offset 3, -8
 104              		.cfi_offset 14, -4
 214:../src/system_stm32f10x.c ****   /* Reset the RCC clock configuration to the default reset state(for debug purpose) */
 215:../src/system_stm32f10x.c ****   /* Set HSION bit */
 216:../src/system_stm32f10x.c ****   RCC->CR |= (uint32_t)0x00000001;
 105              		.loc 1 216 0
 106 0002 164A     		ldr	r2, .L2	@ D.5218,
 107 0004 154B     		ldr	r3, .L2	@ D.5218,
 108 0006 1B68     		ldr	r3, [r3]	@ D.5219, _2->CR
 109 0008 43F00103 		orr	r3, r3, #1	@ D.5219, D.5219,
 110 000c 1360     		str	r3, [r2]	@ D.5219, _1->CR
 217:../src/system_stm32f10x.c **** 
 218:../src/system_stm32f10x.c ****   /* Reset SW, HPRE, PPRE1, PPRE2, ADCPRE and MCO bits */
 219:../src/system_stm32f10x.c **** #ifndef STM32F10X_CL
 220:../src/system_stm32f10x.c ****   RCC->CFGR &= (uint32_t)0xF8FF0000;
 111              		.loc 1 220 0
 112 000e 1349     		ldr	r1, .L2	@ D.5218,
 113 0010 124B     		ldr	r3, .L2	@ D.5218,
 114 0012 5A68     		ldr	r2, [r3, #4]	@ D.5219, _8->CFGR
 115 0014 124B     		ldr	r3, .L2+4	@ D.5219,
 116 0016 1340     		ands	r3, r3, r2	@, D.5219, D.5219, D.5219
 117 0018 4B60     		str	r3, [r1, #4]	@ D.5219, _7->CFGR
 221:../src/system_stm32f10x.c **** #else
 222:../src/system_stm32f10x.c ****   RCC->CFGR &= (uint32_t)0xF0FF0000;
 223:../src/system_stm32f10x.c **** #endif /* STM32F10X_CL */   
 224:../src/system_stm32f10x.c ****   
 225:../src/system_stm32f10x.c ****   /* Reset HSEON, CSSON and PLLON bits */
ARM GAS  /tmp/ccKn6e2L.s 			page 7


 226:../src/system_stm32f10x.c ****   RCC->CR &= (uint32_t)0xFEF6FFFF;
 118              		.loc 1 226 0
 119 001a 104A     		ldr	r2, .L2	@ D.5218,
 120 001c 0F4B     		ldr	r3, .L2	@ D.5218,
 121 001e 1B68     		ldr	r3, [r3]	@ D.5219, _13->CR
 122 0020 23F08473 		bic	r3, r3, #17301504	@ D.5219, D.5219,
 123 0024 23F48033 		bic	r3, r3, #65536	@ D.5219, D.5219,
 124 0028 1360     		str	r3, [r2]	@ D.5219, _12->CR
 227:../src/system_stm32f10x.c **** 
 228:../src/system_stm32f10x.c ****   /* Reset HSEBYP bit */
 229:../src/system_stm32f10x.c ****   RCC->CR &= (uint32_t)0xFFFBFFFF;
 125              		.loc 1 229 0
 126 002a 0C4A     		ldr	r2, .L2	@ D.5218,
 127 002c 0B4B     		ldr	r3, .L2	@ D.5218,
 128 002e 1B68     		ldr	r3, [r3]	@ D.5219, _18->CR
 129 0030 23F48023 		bic	r3, r3, #262144	@ D.5219, D.5219,
 130 0034 1360     		str	r3, [r2]	@ D.5219, _17->CR
 230:../src/system_stm32f10x.c **** 
 231:../src/system_stm32f10x.c ****   /* Reset PLLSRC, PLLXTPRE, PLLMUL and USBPRE/OTGFSPRE bits */
 232:../src/system_stm32f10x.c ****   RCC->CFGR &= (uint32_t)0xFF80FFFF;
 131              		.loc 1 232 0
 132 0036 094A     		ldr	r2, .L2	@ D.5218,
 133 0038 084B     		ldr	r3, .L2	@ D.5218,
 134 003a 5B68     		ldr	r3, [r3, #4]	@ D.5219, _23->CFGR
 135 003c 23F4FE03 		bic	r3, r3, #8323072	@ D.5219, D.5219,
 136 0040 5360     		str	r3, [r2, #4]	@ D.5219, _22->CFGR
 233:../src/system_stm32f10x.c **** 
 234:../src/system_stm32f10x.c **** #ifdef STM32F10X_CL
 235:../src/system_stm32f10x.c ****   /* Reset PLL2ON and PLL3ON bits */
 236:../src/system_stm32f10x.c ****   RCC->CR &= (uint32_t)0xEBFFFFFF;
 237:../src/system_stm32f10x.c **** 
 238:../src/system_stm32f10x.c ****   /* Disable all interrupts and clear pending bits  */
 239:../src/system_stm32f10x.c ****   RCC->CIR = 0x00FF0000;
 240:../src/system_stm32f10x.c **** 
 241:../src/system_stm32f10x.c ****   /* Reset CFGR2 register */
 242:../src/system_stm32f10x.c ****   RCC->CFGR2 = 0x00000000;
 243:../src/system_stm32f10x.c **** #elif defined (STM32F10X_LD_VL) || defined (STM32F10X_MD_VL) || (defined STM32F10X_HD_VL)
 244:../src/system_stm32f10x.c ****   /* Disable all interrupts and clear pending bits  */
 245:../src/system_stm32f10x.c ****   RCC->CIR = 0x009F0000;
 246:../src/system_stm32f10x.c **** 
 247:../src/system_stm32f10x.c ****   /* Reset CFGR2 register */
 248:../src/system_stm32f10x.c ****   RCC->CFGR2 = 0x00000000;      
 249:../src/system_stm32f10x.c **** #else
 250:../src/system_stm32f10x.c ****   /* Disable all interrupts and clear pending bits  */
 251:../src/system_stm32f10x.c ****   RCC->CIR = 0x009F0000;
 137              		.loc 1 251 0
 138 0042 064B     		ldr	r3, .L2	@ D.5218,
 139 0044 4FF41F02 		mov	r2, #10420224	@ tmp132,
 140 0048 9A60     		str	r2, [r3, #8]	@ tmp132, _27->CIR
 252:../src/system_stm32f10x.c **** #endif /* STM32F10X_CL */
 253:../src/system_stm32f10x.c ****     
 254:../src/system_stm32f10x.c **** #if defined (STM32F10X_HD) || (defined STM32F10X_XL) || (defined STM32F10X_HD_VL)
 255:../src/system_stm32f10x.c ****   #ifdef DATA_IN_ExtSRAM
 256:../src/system_stm32f10x.c ****     SystemInit_ExtMemCtl(); 
 257:../src/system_stm32f10x.c ****   #endif /* DATA_IN_ExtSRAM */
 258:../src/system_stm32f10x.c **** #endif 
 259:../src/system_stm32f10x.c **** 
ARM GAS  /tmp/ccKn6e2L.s 			page 8


 260:../src/system_stm32f10x.c ****   /* Configure the System clock frequency, HCLK, PCLK2 and PCLK1 prescalers */
 261:../src/system_stm32f10x.c ****   /* Configure the Flash Latency cycles and enable prefetch buffer */
 262:../src/system_stm32f10x.c ****   SetSysClock();
 141              		.loc 1 262 0
 142 004a 00F075F8 		bl	SetSysClock	@
 263:../src/system_stm32f10x.c **** 
 264:../src/system_stm32f10x.c **** #ifdef VECT_TAB_SRAM
 265:../src/system_stm32f10x.c ****   SCB->VTOR = SRAM_BASE | VECT_TAB_OFFSET; /* Vector Table Relocation in Internal SRAM. */
 266:../src/system_stm32f10x.c **** #else
 267:../src/system_stm32f10x.c ****   SCB->VTOR = FLASH_BASE | VECT_TAB_OFFSET; /* Vector Table Relocation in Internal FLASH. */
 143              		.loc 1 267 0
 144 004e 054B     		ldr	r3, .L2+8	@ D.5220,
 145 0050 4FF00062 		mov	r2, #134217728	@ tmp133,
 146 0054 9A60     		str	r2, [r3, #8]	@ tmp133, _30->VTOR
 268:../src/system_stm32f10x.c **** #endif 
 269:../src/system_stm32f10x.c **** }
 147              		.loc 1 269 0
 148 0056 00BF     		nop
 149 0058 08BD     		pop	{r3, pc}	@
 150              	.L3:
 151 005a 00BF     		.align	2
 152              	.L2:
 153 005c 00100240 		.word	1073876992
 154 0060 0000FFF8 		.word	-117506048
 155 0064 00ED00E0 		.word	-536810240
 156              		.cfi_endproc
 157              	.LFE29:
 158              		.size	SystemInit, .-SystemInit
 159              		.align	2
 160              		.global	SystemCoreClockUpdate
 161              		.thumb
 162              		.thumb_func
 163              		.type	SystemCoreClockUpdate, %function
 164              	SystemCoreClockUpdate:
 165              	.LFB30:
 270:../src/system_stm32f10x.c **** 
 271:../src/system_stm32f10x.c **** /**
 272:../src/system_stm32f10x.c ****   * @brief  Update SystemCoreClock variable according to Clock Register Values.
 273:../src/system_stm32f10x.c ****   *         The SystemCoreClock variable contains the core clock (HCLK), it can
 274:../src/system_stm32f10x.c ****   *         be used by the user application to setup the SysTick timer or configure
 275:../src/system_stm32f10x.c ****   *         other parameters.
 276:../src/system_stm32f10x.c ****   *           
 277:../src/system_stm32f10x.c ****   * @note   Each time the core clock (HCLK) changes, this function must be called
 278:../src/system_stm32f10x.c ****   *         to update SystemCoreClock variable value. Otherwise, any configuration
 279:../src/system_stm32f10x.c ****   *         based on this variable will be incorrect.         
 280:../src/system_stm32f10x.c ****   *     
 281:../src/system_stm32f10x.c ****   * @note   - The system frequency computed by this function is not the real 
 282:../src/system_stm32f10x.c ****   *           frequency in the chip. It is calculated based on the predefined 
 283:../src/system_stm32f10x.c ****   *           constant and the selected clock source:
 284:../src/system_stm32f10x.c ****   *             
 285:../src/system_stm32f10x.c ****   *           - If SYSCLK source is HSI, SystemCoreClock will contain the HSI_VALUE(*)
 286:../src/system_stm32f10x.c ****   *                                              
 287:../src/system_stm32f10x.c ****   *           - If SYSCLK source is HSE, SystemCoreClock will contain the HSE_VALUE(**)
 288:../src/system_stm32f10x.c ****   *                          
 289:../src/system_stm32f10x.c ****   *           - If SYSCLK source is PLL, SystemCoreClock will contain the HSE_VALUE(**) 
 290:../src/system_stm32f10x.c ****   *             or HSI_VALUE(*) multiplied by the PLL factors.
 291:../src/system_stm32f10x.c ****   *         
ARM GAS  /tmp/ccKn6e2L.s 			page 9


 292:../src/system_stm32f10x.c ****   *         (*) HSI_VALUE is a constant defined in stm32f1xx.h file (default value
 293:../src/system_stm32f10x.c ****   *             8 MHz) but the real value may vary depending on the variations
 294:../src/system_stm32f10x.c ****   *             in voltage and temperature.   
 295:../src/system_stm32f10x.c ****   *    
 296:../src/system_stm32f10x.c ****   *         (**) HSE_VALUE is a constant defined in stm32f1xx.h file (default value
 297:../src/system_stm32f10x.c ****   *              8 MHz or 25 MHz, depedning on the product used), user has to ensure
 298:../src/system_stm32f10x.c ****   *              that HSE_VALUE is same as the real frequency of the crystal used.
 299:../src/system_stm32f10x.c ****   *              Otherwise, this function may have wrong result.
 300:../src/system_stm32f10x.c ****   *                
 301:../src/system_stm32f10x.c ****   *         - The result of this function could be not correct when using fractional
 302:../src/system_stm32f10x.c ****   *           value for HSE crystal.
 303:../src/system_stm32f10x.c ****   * @param  None
 304:../src/system_stm32f10x.c ****   * @retval None
 305:../src/system_stm32f10x.c ****   */
 306:../src/system_stm32f10x.c **** void SystemCoreClockUpdate (void)
 307:../src/system_stm32f10x.c **** {
 166              		.loc 1 307 0
 167              		.cfi_startproc
 168              		@ args = 0, pretend = 0, frame = 16
 169              		@ frame_needed = 0, uses_anonymous_args = 0
 170              		@ link register save eliminated.
 171 0068 84B0     		sub	sp, sp, #16	@,,
 172              	.LCFI1:
 173              		.cfi_def_cfa_offset 16
 308:../src/system_stm32f10x.c ****   uint32_t tmp = 0, pllmull = 0, pllsource = 0;
 174              		.loc 1 308 0
 175 006a 0023     		movs	r3, #0	@ tmp130,
 176 006c 0393     		str	r3, [sp, #12]	@ tmp130, tmp
 177 006e 0023     		movs	r3, #0	@ tmp131,
 178 0070 0293     		str	r3, [sp, #8]	@ tmp131, pllmull
 179 0072 0023     		movs	r3, #0	@ tmp132,
 180 0074 0193     		str	r3, [sp, #4]	@ tmp132, pllsource
 309:../src/system_stm32f10x.c **** 
 310:../src/system_stm32f10x.c **** #ifdef  STM32F10X_CL
 311:../src/system_stm32f10x.c ****   uint32_t prediv1source = 0, prediv1factor = 0, prediv2factor = 0, pll2mull = 0;
 312:../src/system_stm32f10x.c **** #endif /* STM32F10X_CL */
 313:../src/system_stm32f10x.c **** 
 314:../src/system_stm32f10x.c **** #if defined (STM32F10X_LD_VL) || defined (STM32F10X_MD_VL) || (defined STM32F10X_HD_VL)
 315:../src/system_stm32f10x.c ****   uint32_t prediv1factor = 0;
 316:../src/system_stm32f10x.c **** #endif /* STM32F10X_LD_VL or STM32F10X_MD_VL or STM32F10X_HD_VL */
 317:../src/system_stm32f10x.c ****     
 318:../src/system_stm32f10x.c ****   /* Get SYSCLK source -------------------------------------------------------*/
 319:../src/system_stm32f10x.c ****   tmp = RCC->CFGR & RCC_CFGR_SWS;
 181              		.loc 1 319 0
 182 0076 2B4B     		ldr	r3, .L14	@ D.5221,
 183 0078 5B68     		ldr	r3, [r3, #4]	@ D.5222, _6->CFGR
 184 007a 03F00C03 		and	r3, r3, #12	@ tmp133, D.5222,
 185 007e 0393     		str	r3, [sp, #12]	@ tmp133, tmp
 320:../src/system_stm32f10x.c ****   
 321:../src/system_stm32f10x.c ****   switch (tmp)
 186              		.loc 1 321 0
 187 0080 039B     		ldr	r3, [sp, #12]	@ tmp, tmp
 188 0082 042B     		cmp	r3, #4	@ tmp,
 189 0084 07D0     		beq	.L6	@,
 190 0086 082B     		cmp	r3, #8	@ tmp,
 191 0088 09D0     		beq	.L7	@,
 192 008a 002B     		cmp	r3, #0	@ tmp,
ARM GAS  /tmp/ccKn6e2L.s 			page 10


 193 008c 33D1     		bne	.L13	@,
 322:../src/system_stm32f10x.c ****   {
 323:../src/system_stm32f10x.c ****     case 0x00:  /* HSI used as system clock */
 324:../src/system_stm32f10x.c ****       SystemCoreClock = HSI_VALUE;
 194              		.loc 1 324 0
 195 008e 264B     		ldr	r3, .L14+4	@ tmp135,
 196 0090 264A     		ldr	r2, .L14+8	@ tmp136,
 197 0092 1A60     		str	r2, [r3]	@ tmp136, SystemCoreClock
 325:../src/system_stm32f10x.c ****       break;
 198              		.loc 1 325 0
 199 0094 33E0     		b	.L9	@
 200              	.L6:
 326:../src/system_stm32f10x.c ****     case 0x04:  /* HSE used as system clock */
 327:../src/system_stm32f10x.c ****       SystemCoreClock = HSE_VALUE;
 201              		.loc 1 327 0
 202 0096 244B     		ldr	r3, .L14+4	@ tmp137,
 203 0098 244A     		ldr	r2, .L14+8	@ tmp138,
 204 009a 1A60     		str	r2, [r3]	@ tmp138, SystemCoreClock
 328:../src/system_stm32f10x.c ****       break;
 205              		.loc 1 328 0
 206 009c 2FE0     		b	.L9	@
 207              	.L7:
 329:../src/system_stm32f10x.c ****     case 0x08:  /* PLL used as system clock */
 330:../src/system_stm32f10x.c **** 
 331:../src/system_stm32f10x.c ****       /* Get PLL clock source and multiplication factor ----------------------*/
 332:../src/system_stm32f10x.c ****       pllmull = RCC->CFGR & RCC_CFGR_PLLMULL;
 208              		.loc 1 332 0
 209 009e 214B     		ldr	r3, .L14	@ D.5221,
 210 00a0 5B68     		ldr	r3, [r3, #4]	@ D.5222, _12->CFGR
 211 00a2 03F47013 		and	r3, r3, #3932160	@ tmp139, D.5222,
 212 00a6 0293     		str	r3, [sp, #8]	@ tmp139, pllmull
 333:../src/system_stm32f10x.c ****       pllsource = RCC->CFGR & RCC_CFGR_PLLSRC;
 213              		.loc 1 333 0
 214 00a8 1E4B     		ldr	r3, .L14	@ D.5221,
 215 00aa 5B68     		ldr	r3, [r3, #4]	@ D.5222, _15->CFGR
 216 00ac 03F48033 		and	r3, r3, #65536	@ tmp140, D.5222,
 217 00b0 0193     		str	r3, [sp, #4]	@ tmp140, pllsource
 334:../src/system_stm32f10x.c ****       
 335:../src/system_stm32f10x.c **** #ifndef STM32F10X_CL      
 336:../src/system_stm32f10x.c ****       pllmull = ( pllmull >> 18) + 2;
 218              		.loc 1 336 0
 219 00b2 029B     		ldr	r3, [sp, #8]	@ tmp141, pllmull
 220 00b4 9B0C     		lsrs	r3, r3, #18	@ D.5222, tmp141,
 221 00b6 0233     		adds	r3, r3, #2	@ tmp142, D.5222,
 222 00b8 0293     		str	r3, [sp, #8]	@ tmp142, pllmull
 337:../src/system_stm32f10x.c ****       
 338:../src/system_stm32f10x.c ****       if (pllsource == 0x00)
 223              		.loc 1 338 0
 224 00ba 019B     		ldr	r3, [sp, #4]	@ tmp143, pllsource
 225 00bc 002B     		cmp	r3, #0	@ tmp143,
 226 00be 06D1     		bne	.L10	@,
 339:../src/system_stm32f10x.c ****       {
 340:../src/system_stm32f10x.c ****         /* HSI oscillator clock divided by 2 selected as PLL clock entry */
 341:../src/system_stm32f10x.c ****         SystemCoreClock = (HSI_VALUE >> 1) * pllmull;
 227              		.loc 1 341 0
 228 00c0 029B     		ldr	r3, [sp, #8]	@ tmp144, pllmull
 229 00c2 1B4A     		ldr	r2, .L14+12	@ tmp145,
ARM GAS  /tmp/ccKn6e2L.s 			page 11


 230 00c4 02FB03F3 		mul	r3, r2, r3	@ D.5222, tmp145, tmp144
 231 00c8 174A     		ldr	r2, .L14+4	@ tmp146,
 232 00ca 1360     		str	r3, [r2]	@ D.5222, SystemCoreClock
 342:../src/system_stm32f10x.c ****       }
 343:../src/system_stm32f10x.c ****       else
 344:../src/system_stm32f10x.c ****       {
 345:../src/system_stm32f10x.c ****  #if defined (STM32F10X_LD_VL) || defined (STM32F10X_MD_VL) || (defined STM32F10X_HD_VL)
 346:../src/system_stm32f10x.c ****        prediv1factor = (RCC->CFGR2 & RCC_CFGR2_PREDIV1) + 1;
 347:../src/system_stm32f10x.c ****        /* HSE oscillator clock selected as PREDIV1 clock entry */
 348:../src/system_stm32f10x.c ****        SystemCoreClock = (HSE_VALUE / prediv1factor) * pllmull; 
 349:../src/system_stm32f10x.c ****  #else
 350:../src/system_stm32f10x.c ****         /* HSE selected as PLL clock entry */
 351:../src/system_stm32f10x.c ****         if ((RCC->CFGR & RCC_CFGR_PLLXTPRE) != (uint32_t)RESET)
 352:../src/system_stm32f10x.c ****         {/* HSE oscillator clock divided by 2 */
 353:../src/system_stm32f10x.c ****           SystemCoreClock = (HSE_VALUE >> 1) * pllmull;
 354:../src/system_stm32f10x.c ****         }
 355:../src/system_stm32f10x.c ****         else
 356:../src/system_stm32f10x.c ****         {
 357:../src/system_stm32f10x.c ****           SystemCoreClock = HSE_VALUE * pllmull;
 358:../src/system_stm32f10x.c ****         }
 359:../src/system_stm32f10x.c ****  #endif
 360:../src/system_stm32f10x.c ****       }
 361:../src/system_stm32f10x.c **** #else
 362:../src/system_stm32f10x.c ****       pllmull = pllmull >> 18;
 363:../src/system_stm32f10x.c ****       
 364:../src/system_stm32f10x.c ****       if (pllmull != 0x0D)
 365:../src/system_stm32f10x.c ****       {
 366:../src/system_stm32f10x.c ****          pllmull += 2;
 367:../src/system_stm32f10x.c ****       }
 368:../src/system_stm32f10x.c ****       else
 369:../src/system_stm32f10x.c ****       { /* PLL multiplication factor = PLL input clock * 6.5 */
 370:../src/system_stm32f10x.c ****         pllmull = 13 / 2; 
 371:../src/system_stm32f10x.c ****       }
 372:../src/system_stm32f10x.c ****             
 373:../src/system_stm32f10x.c ****       if (pllsource == 0x00)
 374:../src/system_stm32f10x.c ****       {
 375:../src/system_stm32f10x.c ****         /* HSI oscillator clock divided by 2 selected as PLL clock entry */
 376:../src/system_stm32f10x.c ****         SystemCoreClock = (HSI_VALUE >> 1) * pllmull;
 377:../src/system_stm32f10x.c ****       }
 378:../src/system_stm32f10x.c ****       else
 379:../src/system_stm32f10x.c ****       {/* PREDIV1 selected as PLL clock entry */
 380:../src/system_stm32f10x.c ****         
 381:../src/system_stm32f10x.c ****         /* Get PREDIV1 clock source and division factor */
 382:../src/system_stm32f10x.c ****         prediv1source = RCC->CFGR2 & RCC_CFGR2_PREDIV1SRC;
 383:../src/system_stm32f10x.c ****         prediv1factor = (RCC->CFGR2 & RCC_CFGR2_PREDIV1) + 1;
 384:../src/system_stm32f10x.c ****         
 385:../src/system_stm32f10x.c ****         if (prediv1source == 0)
 386:../src/system_stm32f10x.c ****         { 
 387:../src/system_stm32f10x.c ****           /* HSE oscillator clock selected as PREDIV1 clock entry */
 388:../src/system_stm32f10x.c ****           SystemCoreClock = (HSE_VALUE / prediv1factor) * pllmull;          
 389:../src/system_stm32f10x.c ****         }
 390:../src/system_stm32f10x.c ****         else
 391:../src/system_stm32f10x.c ****         {/* PLL2 clock selected as PREDIV1 clock entry */
 392:../src/system_stm32f10x.c ****           
 393:../src/system_stm32f10x.c ****           /* Get PREDIV2 division factor and PLL2 multiplication factor */
 394:../src/system_stm32f10x.c ****           prediv2factor = ((RCC->CFGR2 & RCC_CFGR2_PREDIV2) >> 4) + 1;
 395:../src/system_stm32f10x.c ****           pll2mull = ((RCC->CFGR2 & RCC_CFGR2_PLL2MUL) >> 8 ) + 2; 
ARM GAS  /tmp/ccKn6e2L.s 			page 12


 396:../src/system_stm32f10x.c ****           SystemCoreClock = (((HSE_VALUE / prediv2factor) * pll2mull) / prediv1factor) * pllmull;  
 397:../src/system_stm32f10x.c ****         }
 398:../src/system_stm32f10x.c ****       }
 399:../src/system_stm32f10x.c **** #endif /* STM32F10X_CL */ 
 400:../src/system_stm32f10x.c ****       break;
 233              		.loc 1 400 0
 234 00cc 17E0     		b	.L9	@
 235              	.L10:
 351:../src/system_stm32f10x.c ****         {/* HSE oscillator clock divided by 2 */
 236              		.loc 1 351 0
 237 00ce 154B     		ldr	r3, .L14	@ D.5221,
 238 00d0 5B68     		ldr	r3, [r3, #4]	@ D.5222, _22->CFGR
 239 00d2 03F40033 		and	r3, r3, #131072	@ D.5222, D.5222,
 240 00d6 002B     		cmp	r3, #0	@ D.5222,
 241 00d8 06D0     		beq	.L12	@,
 353:../src/system_stm32f10x.c ****         }
 242              		.loc 1 353 0
 243 00da 029B     		ldr	r3, [sp, #8]	@ tmp147, pllmull
 244 00dc 144A     		ldr	r2, .L14+12	@ tmp148,
 245 00de 02FB03F3 		mul	r3, r2, r3	@ D.5222, tmp148, tmp147
 246 00e2 114A     		ldr	r2, .L14+4	@ tmp149,
 247 00e4 1360     		str	r3, [r2]	@ D.5222, SystemCoreClock
 248              		.loc 1 400 0
 249 00e6 0AE0     		b	.L9	@
 250              	.L12:
 357:../src/system_stm32f10x.c ****         }
 251              		.loc 1 357 0
 252 00e8 029B     		ldr	r3, [sp, #8]	@ tmp150, pllmull
 253 00ea 104A     		ldr	r2, .L14+8	@ tmp151,
 254 00ec 02FB03F3 		mul	r3, r2, r3	@ D.5222, tmp151, tmp150
 255 00f0 0D4A     		ldr	r2, .L14+4	@ tmp152,
 256 00f2 1360     		str	r3, [r2]	@ D.5222, SystemCoreClock
 257              		.loc 1 400 0
 258 00f4 03E0     		b	.L9	@
 259              	.L13:
 401:../src/system_stm32f10x.c **** 
 402:../src/system_stm32f10x.c ****     default:
 403:../src/system_stm32f10x.c ****       SystemCoreClock = HSI_VALUE;
 260              		.loc 1 403 0
 261 00f6 0C4B     		ldr	r3, .L14+4	@ tmp153,
 262 00f8 0C4A     		ldr	r2, .L14+8	@ tmp154,
 263 00fa 1A60     		str	r2, [r3]	@ tmp154, SystemCoreClock
 404:../src/system_stm32f10x.c ****       break;
 264              		.loc 1 404 0
 265 00fc 00BF     		nop
 266              	.L9:
 405:../src/system_stm32f10x.c ****   }
 406:../src/system_stm32f10x.c ****   
 407:../src/system_stm32f10x.c ****   /* Compute HCLK clock frequency ----------------*/
 408:../src/system_stm32f10x.c ****   /* Get HCLK prescaler */
 409:../src/system_stm32f10x.c ****   tmp = AHBPrescTable[((RCC->CFGR & RCC_CFGR_HPRE) >> 4)];
 267              		.loc 1 409 0
 268 00fe 094B     		ldr	r3, .L14	@ D.5221,
 269 0100 5B68     		ldr	r3, [r3, #4]	@ D.5222, _30->CFGR
 270 0102 03F0F003 		and	r3, r3, #240	@ D.5222, D.5222,
 271 0106 1B09     		lsrs	r3, r3, #4	@ D.5222, D.5222,
 272 0108 0A4A     		ldr	r2, .L14+16	@ tmp155,
ARM GAS  /tmp/ccKn6e2L.s 			page 13


 273 010a D35C     		ldrb	r3, [r2, r3]	@ tmp157, AHBPrescTable
 274 010c DBB2     		uxtb	r3, r3	@ D.5223, tmp157
 275 010e 0393     		str	r3, [sp, #12]	@ D.5223, tmp
 410:../src/system_stm32f10x.c ****   /* HCLK clock frequency */
 411:../src/system_stm32f10x.c ****   SystemCoreClock >>= tmp;  
 276              		.loc 1 411 0
 277 0110 054B     		ldr	r3, .L14+4	@ tmp158,
 278 0112 1A68     		ldr	r2, [r3]	@ D.5222, SystemCoreClock
 279 0114 039B     		ldr	r3, [sp, #12]	@ tmp159, tmp
 280 0116 22FA03F3 		lsr	r3, r2, r3	@ D.5222, D.5222, tmp159
 281 011a 034A     		ldr	r2, .L14+4	@ tmp160,
 282 011c 1360     		str	r3, [r2]	@ D.5222, SystemCoreClock
 412:../src/system_stm32f10x.c **** }
 283              		.loc 1 412 0
 284 011e 00BF     		nop
 285 0120 04B0     		add	sp, sp, #16	@,,
 286              	.LCFI2:
 287              		.cfi_def_cfa_offset 0
 288              		@ sp needed	@
 289 0122 7047     		bx	lr	@
 290              	.L15:
 291              		.align	2
 292              	.L14:
 293 0124 00100240 		.word	1073876992
 294 0128 00000000 		.word	SystemCoreClock
 295 012c 00127A00 		.word	8000000
 296 0130 00093D00 		.word	4000000
 297 0134 00000000 		.word	AHBPrescTable
 298              		.cfi_endproc
 299              	.LFE30:
 300              		.size	SystemCoreClockUpdate, .-SystemCoreClockUpdate
 301              		.align	2
 302              		.thumb
 303              		.thumb_func
 304              		.type	SetSysClock, %function
 305              	SetSysClock:
 306              	.LFB31:
 413:../src/system_stm32f10x.c **** 
 414:../src/system_stm32f10x.c **** /**
 415:../src/system_stm32f10x.c ****   * @brief  Configures the System clock frequency, HCLK, PCLK2 and PCLK1 prescalers.
 416:../src/system_stm32f10x.c ****   * @param  None
 417:../src/system_stm32f10x.c ****   * @retval None
 418:../src/system_stm32f10x.c ****   */
 419:../src/system_stm32f10x.c **** static void SetSysClock(void)
 420:../src/system_stm32f10x.c **** {
 307              		.loc 1 420 0
 308              		.cfi_startproc
 309              		@ args = 0, pretend = 0, frame = 0
 310              		@ frame_needed = 0, uses_anonymous_args = 0
 311 0138 08B5     		push	{r3, lr}	@
 312              	.LCFI3:
 313              		.cfi_def_cfa_offset 8
 314              		.cfi_offset 3, -8
 315              		.cfi_offset 14, -4
 421:../src/system_stm32f10x.c **** #ifdef SYSCLK_FREQ_HSE
 422:../src/system_stm32f10x.c ****   SetSysClockToHSE();
 423:../src/system_stm32f10x.c **** #elif defined SYSCLK_FREQ_24MHz
ARM GAS  /tmp/ccKn6e2L.s 			page 14


 424:../src/system_stm32f10x.c ****   SetSysClockTo24();
 425:../src/system_stm32f10x.c **** #elif defined SYSCLK_FREQ_36MHz
 426:../src/system_stm32f10x.c ****   SetSysClockTo36();
 427:../src/system_stm32f10x.c **** #elif defined SYSCLK_FREQ_48MHz
 428:../src/system_stm32f10x.c ****   SetSysClockTo48();
 429:../src/system_stm32f10x.c **** #elif defined SYSCLK_FREQ_56MHz
 430:../src/system_stm32f10x.c ****   SetSysClockTo56();  
 431:../src/system_stm32f10x.c **** #elif defined SYSCLK_FREQ_72MHz
 432:../src/system_stm32f10x.c ****   SetSysClockTo72();
 316              		.loc 1 432 0
 317 013a 00F003F8 		bl	SetSysClockTo72	@
 433:../src/system_stm32f10x.c **** #endif
 434:../src/system_stm32f10x.c ****  
 435:../src/system_stm32f10x.c ****  /* If none of the define above is enabled, the HSI is used as System clock
 436:../src/system_stm32f10x.c ****     source (default after reset) */ 
 437:../src/system_stm32f10x.c **** }
 318              		.loc 1 437 0
 319 013e 00BF     		nop
 320 0140 08BD     		pop	{r3, pc}	@
 321              		.cfi_endproc
 322              	.LFE31:
 323              		.size	SetSysClock, .-SetSysClock
 324 0142 00BF     		.align	2
 325              		.thumb
 326              		.thumb_func
 327              		.type	SetSysClockTo72, %function
 328              	SetSysClockTo72:
 329              	.LFB32:
 438:../src/system_stm32f10x.c **** 
 439:../src/system_stm32f10x.c **** /**
 440:../src/system_stm32f10x.c ****   * @brief  Setup the external memory controller. Called in startup_stm32f10x.s 
 441:../src/system_stm32f10x.c ****   *          before jump to __main
 442:../src/system_stm32f10x.c ****   * @param  None
 443:../src/system_stm32f10x.c ****   * @retval None
 444:../src/system_stm32f10x.c ****   */ 
 445:../src/system_stm32f10x.c **** #ifdef DATA_IN_ExtSRAM
 446:../src/system_stm32f10x.c **** /**
 447:../src/system_stm32f10x.c ****   * @brief  Setup the external memory controller. 
 448:../src/system_stm32f10x.c ****   *         Called in startup_stm32f10x_xx.s/.c before jump to main.
 449:../src/system_stm32f10x.c ****   * 	      This function configures the external SRAM mounted on STM3210E-EVAL
 450:../src/system_stm32f10x.c ****   *         board (STM32 High density devices). This SRAM will be used as program
 451:../src/system_stm32f10x.c ****   *         data memory (including heap and stack).
 452:../src/system_stm32f10x.c ****   * @param  None
 453:../src/system_stm32f10x.c ****   * @retval None
 454:../src/system_stm32f10x.c ****   */ 
 455:../src/system_stm32f10x.c **** void SystemInit_ExtMemCtl(void) 
 456:../src/system_stm32f10x.c **** {
 457:../src/system_stm32f10x.c **** /*!< FSMC Bank1 NOR/SRAM3 is used for the STM3210E-EVAL, if another Bank is 
 458:../src/system_stm32f10x.c ****   required, then adjust the Register Addresses */
 459:../src/system_stm32f10x.c **** 
 460:../src/system_stm32f10x.c ****   /* Enable FSMC clock */
 461:../src/system_stm32f10x.c ****   RCC->AHBENR = 0x00000114;
 462:../src/system_stm32f10x.c ****   
 463:../src/system_stm32f10x.c ****   /* Enable GPIOD, GPIOE, GPIOF and GPIOG clocks */  
 464:../src/system_stm32f10x.c ****   RCC->APB2ENR = 0x000001E0;
 465:../src/system_stm32f10x.c ****   
 466:../src/system_stm32f10x.c **** /* ---------------  SRAM Data lines, NOE and NWE configuration ---------------*/
ARM GAS  /tmp/ccKn6e2L.s 			page 15


 467:../src/system_stm32f10x.c **** /*----------------  SRAM Address lines configuration -------------------------*/
 468:../src/system_stm32f10x.c **** /*----------------  NOE and NWE configuration --------------------------------*/  
 469:../src/system_stm32f10x.c **** /*----------------  NE3 configuration ----------------------------------------*/
 470:../src/system_stm32f10x.c **** /*----------------  NBL0, NBL1 configuration ---------------------------------*/
 471:../src/system_stm32f10x.c ****   
 472:../src/system_stm32f10x.c ****   GPIOD->CRL = 0x44BB44BB;  
 473:../src/system_stm32f10x.c ****   GPIOD->CRH = 0xBBBBBBBB;
 474:../src/system_stm32f10x.c **** 
 475:../src/system_stm32f10x.c ****   GPIOE->CRL = 0xB44444BB;  
 476:../src/system_stm32f10x.c ****   GPIOE->CRH = 0xBBBBBBBB;
 477:../src/system_stm32f10x.c **** 
 478:../src/system_stm32f10x.c ****   GPIOF->CRL = 0x44BBBBBB;  
 479:../src/system_stm32f10x.c ****   GPIOF->CRH = 0xBBBB4444;
 480:../src/system_stm32f10x.c **** 
 481:../src/system_stm32f10x.c ****   GPIOG->CRL = 0x44BBBBBB;  
 482:../src/system_stm32f10x.c ****   GPIOG->CRH = 0x44444B44;
 483:../src/system_stm32f10x.c ****    
 484:../src/system_stm32f10x.c **** /*----------------  FSMC Configuration ---------------------------------------*/  
 485:../src/system_stm32f10x.c **** /*----------------  Enable FSMC Bank1_SRAM Bank ------------------------------*/
 486:../src/system_stm32f10x.c ****   
 487:../src/system_stm32f10x.c ****   FSMC_Bank1->BTCR[4] = 0x00001011;
 488:../src/system_stm32f10x.c ****   FSMC_Bank1->BTCR[5] = 0x00000200;
 489:../src/system_stm32f10x.c **** }
 490:../src/system_stm32f10x.c **** #endif /* DATA_IN_ExtSRAM */
 491:../src/system_stm32f10x.c **** 
 492:../src/system_stm32f10x.c **** #ifdef SYSCLK_FREQ_HSE
 493:../src/system_stm32f10x.c **** /**
 494:../src/system_stm32f10x.c ****   * @brief  Selects HSE as System clock source and configure HCLK, PCLK2
 495:../src/system_stm32f10x.c ****   *         and PCLK1 prescalers.
 496:../src/system_stm32f10x.c ****   * @note   This function should be used only after reset.
 497:../src/system_stm32f10x.c ****   * @param  None
 498:../src/system_stm32f10x.c ****   * @retval None
 499:../src/system_stm32f10x.c ****   */
 500:../src/system_stm32f10x.c **** static void SetSysClockToHSE(void)
 501:../src/system_stm32f10x.c **** {
 502:../src/system_stm32f10x.c ****   __IO uint32_t StartUpCounter = 0, HSEStatus = 0;
 503:../src/system_stm32f10x.c ****   
 504:../src/system_stm32f10x.c ****   /* SYSCLK, HCLK, PCLK2 and PCLK1 configuration ---------------------------*/    
 505:../src/system_stm32f10x.c ****   /* Enable HSE */    
 506:../src/system_stm32f10x.c ****   RCC->CR |= ((uint32_t)RCC_CR_HSEON);
 507:../src/system_stm32f10x.c ****  
 508:../src/system_stm32f10x.c ****   /* Wait till HSE is ready and if Time out is reached exit */
 509:../src/system_stm32f10x.c ****   do
 510:../src/system_stm32f10x.c ****   {
 511:../src/system_stm32f10x.c ****     HSEStatus = RCC->CR & RCC_CR_HSERDY;
 512:../src/system_stm32f10x.c ****     StartUpCounter++;  
 513:../src/system_stm32f10x.c ****   } while((HSEStatus == 0) && (StartUpCounter != HSE_STARTUP_TIMEOUT));
 514:../src/system_stm32f10x.c **** 
 515:../src/system_stm32f10x.c ****   if ((RCC->CR & RCC_CR_HSERDY) != RESET)
 516:../src/system_stm32f10x.c ****   {
 517:../src/system_stm32f10x.c ****     HSEStatus = (uint32_t)0x01;
 518:../src/system_stm32f10x.c ****   }
 519:../src/system_stm32f10x.c ****   else
 520:../src/system_stm32f10x.c ****   {
 521:../src/system_stm32f10x.c ****     HSEStatus = (uint32_t)0x00;
 522:../src/system_stm32f10x.c ****   }  
 523:../src/system_stm32f10x.c **** 
ARM GAS  /tmp/ccKn6e2L.s 			page 16


 524:../src/system_stm32f10x.c ****   if (HSEStatus == (uint32_t)0x01)
 525:../src/system_stm32f10x.c ****   {
 526:../src/system_stm32f10x.c **** 
 527:../src/system_stm32f10x.c **** #if !defined STM32F10X_LD_VL && !defined STM32F10X_MD_VL && !defined STM32F10X_HD_VL
 528:../src/system_stm32f10x.c ****     /* Enable Prefetch Buffer */
 529:../src/system_stm32f10x.c ****     FLASH->ACR |= FLASH_ACR_PRFTBE;
 530:../src/system_stm32f10x.c **** 
 531:../src/system_stm32f10x.c ****     /* Flash 0 wait state */
 532:../src/system_stm32f10x.c ****     FLASH->ACR &= (uint32_t)((uint32_t)~FLASH_ACR_LATENCY);
 533:../src/system_stm32f10x.c **** 
 534:../src/system_stm32f10x.c **** #ifndef STM32F10X_CL
 535:../src/system_stm32f10x.c ****     FLASH->ACR |= (uint32_t)FLASH_ACR_LATENCY_0;
 536:../src/system_stm32f10x.c **** #else
 537:../src/system_stm32f10x.c ****     if (HSE_VALUE <= 24000000)
 538:../src/system_stm32f10x.c **** 	{
 539:../src/system_stm32f10x.c ****       FLASH->ACR |= (uint32_t)FLASH_ACR_LATENCY_0;
 540:../src/system_stm32f10x.c **** 	}
 541:../src/system_stm32f10x.c **** 	else
 542:../src/system_stm32f10x.c **** 	{
 543:../src/system_stm32f10x.c ****       FLASH->ACR |= (uint32_t)FLASH_ACR_LATENCY_1;
 544:../src/system_stm32f10x.c **** 	}
 545:../src/system_stm32f10x.c **** #endif /* STM32F10X_CL */
 546:../src/system_stm32f10x.c **** #endif
 547:../src/system_stm32f10x.c ****  
 548:../src/system_stm32f10x.c ****     /* HCLK = SYSCLK */
 549:../src/system_stm32f10x.c ****     RCC->CFGR |= (uint32_t)RCC_CFGR_HPRE_DIV1;
 550:../src/system_stm32f10x.c ****       
 551:../src/system_stm32f10x.c ****     /* PCLK2 = HCLK */
 552:../src/system_stm32f10x.c ****     RCC->CFGR |= (uint32_t)RCC_CFGR_PPRE2_DIV1;
 553:../src/system_stm32f10x.c ****     
 554:../src/system_stm32f10x.c ****     /* PCLK1 = HCLK */
 555:../src/system_stm32f10x.c ****     RCC->CFGR |= (uint32_t)RCC_CFGR_PPRE1_DIV1;
 556:../src/system_stm32f10x.c ****     
 557:../src/system_stm32f10x.c ****     /* Select HSE as system clock source */
 558:../src/system_stm32f10x.c ****     RCC->CFGR &= (uint32_t)((uint32_t)~(RCC_CFGR_SW));
 559:../src/system_stm32f10x.c ****     RCC->CFGR |= (uint32_t)RCC_CFGR_SW_HSE;    
 560:../src/system_stm32f10x.c **** 
 561:../src/system_stm32f10x.c ****     /* Wait till HSE is used as system clock source */
 562:../src/system_stm32f10x.c ****     while ((RCC->CFGR & (uint32_t)RCC_CFGR_SWS) != (uint32_t)0x04)
 563:../src/system_stm32f10x.c ****     {
 564:../src/system_stm32f10x.c ****     }
 565:../src/system_stm32f10x.c ****   }
 566:../src/system_stm32f10x.c ****   else
 567:../src/system_stm32f10x.c ****   { /* If HSE fails to start-up, the application will have wrong clock 
 568:../src/system_stm32f10x.c ****          configuration. User can add here some code to deal with this error */
 569:../src/system_stm32f10x.c ****   }  
 570:../src/system_stm32f10x.c **** }
 571:../src/system_stm32f10x.c **** #elif defined SYSCLK_FREQ_24MHz
 572:../src/system_stm32f10x.c **** /**
 573:../src/system_stm32f10x.c ****   * @brief  Sets System clock frequency to 24MHz and configure HCLK, PCLK2 
 574:../src/system_stm32f10x.c ****   *         and PCLK1 prescalers.
 575:../src/system_stm32f10x.c ****   * @note   This function should be used only after reset.
 576:../src/system_stm32f10x.c ****   * @param  None
 577:../src/system_stm32f10x.c ****   * @retval None
 578:../src/system_stm32f10x.c ****   */
 579:../src/system_stm32f10x.c **** static void SetSysClockTo24(void)
 580:../src/system_stm32f10x.c **** {
ARM GAS  /tmp/ccKn6e2L.s 			page 17


 581:../src/system_stm32f10x.c ****   __IO uint32_t StartUpCounter = 0, HSEStatus = 0;
 582:../src/system_stm32f10x.c ****   
 583:../src/system_stm32f10x.c ****   /* SYSCLK, HCLK, PCLK2 and PCLK1 configuration ---------------------------*/    
 584:../src/system_stm32f10x.c ****   /* Enable HSE */    
 585:../src/system_stm32f10x.c ****   RCC->CR |= ((uint32_t)RCC_CR_HSEON);
 586:../src/system_stm32f10x.c ****  
 587:../src/system_stm32f10x.c ****   /* Wait till HSE is ready and if Time out is reached exit */
 588:../src/system_stm32f10x.c ****   do
 589:../src/system_stm32f10x.c ****   {
 590:../src/system_stm32f10x.c ****     HSEStatus = RCC->CR & RCC_CR_HSERDY;
 591:../src/system_stm32f10x.c ****     StartUpCounter++;  
 592:../src/system_stm32f10x.c ****   } while((HSEStatus == 0) && (StartUpCounter != HSE_STARTUP_TIMEOUT));
 593:../src/system_stm32f10x.c **** 
 594:../src/system_stm32f10x.c ****   if ((RCC->CR & RCC_CR_HSERDY) != RESET)
 595:../src/system_stm32f10x.c ****   {
 596:../src/system_stm32f10x.c ****     HSEStatus = (uint32_t)0x01;
 597:../src/system_stm32f10x.c ****   }
 598:../src/system_stm32f10x.c ****   else
 599:../src/system_stm32f10x.c ****   {
 600:../src/system_stm32f10x.c ****     HSEStatus = (uint32_t)0x00;
 601:../src/system_stm32f10x.c ****   }  
 602:../src/system_stm32f10x.c **** 
 603:../src/system_stm32f10x.c ****   if (HSEStatus == (uint32_t)0x01)
 604:../src/system_stm32f10x.c ****   {
 605:../src/system_stm32f10x.c **** #if !defined STM32F10X_LD_VL && !defined STM32F10X_MD_VL && !defined STM32F10X_HD_VL 
 606:../src/system_stm32f10x.c ****     /* Enable Prefetch Buffer */
 607:../src/system_stm32f10x.c ****     FLASH->ACR |= FLASH_ACR_PRFTBE;
 608:../src/system_stm32f10x.c **** 
 609:../src/system_stm32f10x.c ****     /* Flash 0 wait state */
 610:../src/system_stm32f10x.c ****     FLASH->ACR &= (uint32_t)((uint32_t)~FLASH_ACR_LATENCY);
 611:../src/system_stm32f10x.c ****     FLASH->ACR |= (uint32_t)FLASH_ACR_LATENCY_0;    
 612:../src/system_stm32f10x.c **** #endif
 613:../src/system_stm32f10x.c ****  
 614:../src/system_stm32f10x.c ****     /* HCLK = SYSCLK */
 615:../src/system_stm32f10x.c ****     RCC->CFGR |= (uint32_t)RCC_CFGR_HPRE_DIV1;
 616:../src/system_stm32f10x.c ****       
 617:../src/system_stm32f10x.c ****     /* PCLK2 = HCLK */
 618:../src/system_stm32f10x.c ****     RCC->CFGR |= (uint32_t)RCC_CFGR_PPRE2_DIV1;
 619:../src/system_stm32f10x.c ****     
 620:../src/system_stm32f10x.c ****     /* PCLK1 = HCLK */
 621:../src/system_stm32f10x.c ****     RCC->CFGR |= (uint32_t)RCC_CFGR_PPRE1_DIV1;
 622:../src/system_stm32f10x.c ****     
 623:../src/system_stm32f10x.c **** #ifdef STM32F10X_CL
 624:../src/system_stm32f10x.c ****     /* Configure PLLs ------------------------------------------------------*/
 625:../src/system_stm32f10x.c ****     /* PLL configuration: PLLCLK = PREDIV1 * 6 = 24 MHz */ 
 626:../src/system_stm32f10x.c ****     RCC->CFGR &= (uint32_t)~(RCC_CFGR_PLLXTPRE | RCC_CFGR_PLLSRC | RCC_CFGR_PLLMULL);
 627:../src/system_stm32f10x.c ****     RCC->CFGR |= (uint32_t)(RCC_CFGR_PLLXTPRE_PREDIV1 | RCC_CFGR_PLLSRC_PREDIV1 | 
 628:../src/system_stm32f10x.c ****                             RCC_CFGR_PLLMULL6); 
 629:../src/system_stm32f10x.c **** 
 630:../src/system_stm32f10x.c ****     /* PLL2 configuration: PLL2CLK = (HSE / 5) * 8 = 40 MHz */
 631:../src/system_stm32f10x.c ****     /* PREDIV1 configuration: PREDIV1CLK = PLL2 / 10 = 4 MHz */       
 632:../src/system_stm32f10x.c ****     RCC->CFGR2 &= (uint32_t)~(RCC_CFGR2_PREDIV2 | RCC_CFGR2_PLL2MUL |
 633:../src/system_stm32f10x.c ****                               RCC_CFGR2_PREDIV1 | RCC_CFGR2_PREDIV1SRC);
 634:../src/system_stm32f10x.c ****     RCC->CFGR2 |= (uint32_t)(RCC_CFGR2_PREDIV2_DIV5 | RCC_CFGR2_PLL2MUL8 |
 635:../src/system_stm32f10x.c ****                              RCC_CFGR2_PREDIV1SRC_PLL2 | RCC_CFGR2_PREDIV1_DIV10);
 636:../src/system_stm32f10x.c ****   
 637:../src/system_stm32f10x.c ****     /* Enable PLL2 */
ARM GAS  /tmp/ccKn6e2L.s 			page 18


 638:../src/system_stm32f10x.c ****     RCC->CR |= RCC_CR_PLL2ON;
 639:../src/system_stm32f10x.c ****     /* Wait till PLL2 is ready */
 640:../src/system_stm32f10x.c ****     while((RCC->CR & RCC_CR_PLL2RDY) == 0)
 641:../src/system_stm32f10x.c ****     {
 642:../src/system_stm32f10x.c ****     }   
 643:../src/system_stm32f10x.c **** #elif defined (STM32F10X_LD_VL) || defined (STM32F10X_MD_VL) || defined (STM32F10X_HD_VL)
 644:../src/system_stm32f10x.c ****     /*  PLL configuration:  = (HSE / 2) * 6 = 24 MHz */
 645:../src/system_stm32f10x.c ****     RCC->CFGR &= (uint32_t)((uint32_t)~(RCC_CFGR_PLLSRC | RCC_CFGR_PLLXTPRE | RCC_CFGR_PLLMULL));
 646:../src/system_stm32f10x.c ****     RCC->CFGR |= (uint32_t)(RCC_CFGR_PLLSRC_PREDIV1 | RCC_CFGR_PLLXTPRE_PREDIV1_Div2 | RCC_CFGR_PLL
 647:../src/system_stm32f10x.c **** #else    
 648:../src/system_stm32f10x.c ****     /*  PLL configuration:  = (HSE / 2) * 6 = 24 MHz */
 649:../src/system_stm32f10x.c ****     RCC->CFGR &= (uint32_t)((uint32_t)~(RCC_CFGR_PLLSRC | RCC_CFGR_PLLXTPRE | RCC_CFGR_PLLMULL));
 650:../src/system_stm32f10x.c ****     RCC->CFGR |= (uint32_t)(RCC_CFGR_PLLSRC_HSE | RCC_CFGR_PLLXTPRE_HSE_Div2 | RCC_CFGR_PLLMULL6);
 651:../src/system_stm32f10x.c **** #endif /* STM32F10X_CL */
 652:../src/system_stm32f10x.c **** 
 653:../src/system_stm32f10x.c ****     /* Enable PLL */
 654:../src/system_stm32f10x.c ****     RCC->CR |= RCC_CR_PLLON;
 655:../src/system_stm32f10x.c **** 
 656:../src/system_stm32f10x.c ****     /* Wait till PLL is ready */
 657:../src/system_stm32f10x.c ****     while((RCC->CR & RCC_CR_PLLRDY) == 0)
 658:../src/system_stm32f10x.c ****     {
 659:../src/system_stm32f10x.c ****     }
 660:../src/system_stm32f10x.c **** 
 661:../src/system_stm32f10x.c ****     /* Select PLL as system clock source */
 662:../src/system_stm32f10x.c ****     RCC->CFGR &= (uint32_t)((uint32_t)~(RCC_CFGR_SW));
 663:../src/system_stm32f10x.c ****     RCC->CFGR |= (uint32_t)RCC_CFGR_SW_PLL;    
 664:../src/system_stm32f10x.c **** 
 665:../src/system_stm32f10x.c ****     /* Wait till PLL is used as system clock source */
 666:../src/system_stm32f10x.c ****     while ((RCC->CFGR & (uint32_t)RCC_CFGR_SWS) != (uint32_t)0x08)
 667:../src/system_stm32f10x.c ****     {
 668:../src/system_stm32f10x.c ****     }
 669:../src/system_stm32f10x.c ****   }
 670:../src/system_stm32f10x.c ****   else
 671:../src/system_stm32f10x.c ****   { /* If HSE fails to start-up, the application will have wrong clock 
 672:../src/system_stm32f10x.c ****          configuration. User can add here some code to deal with this error */
 673:../src/system_stm32f10x.c ****   } 
 674:../src/system_stm32f10x.c **** }
 675:../src/system_stm32f10x.c **** #elif defined SYSCLK_FREQ_36MHz
 676:../src/system_stm32f10x.c **** /**
 677:../src/system_stm32f10x.c ****   * @brief  Sets System clock frequency to 36MHz and configure HCLK, PCLK2 
 678:../src/system_stm32f10x.c ****   *         and PCLK1 prescalers. 
 679:../src/system_stm32f10x.c ****   * @note   This function should be used only after reset.
 680:../src/system_stm32f10x.c ****   * @param  None
 681:../src/system_stm32f10x.c ****   * @retval None
 682:../src/system_stm32f10x.c ****   */
 683:../src/system_stm32f10x.c **** static void SetSysClockTo36(void)
 684:../src/system_stm32f10x.c **** {
 685:../src/system_stm32f10x.c ****   __IO uint32_t StartUpCounter = 0, HSEStatus = 0;
 686:../src/system_stm32f10x.c ****   
 687:../src/system_stm32f10x.c ****   /* SYSCLK, HCLK, PCLK2 and PCLK1 configuration ---------------------------*/    
 688:../src/system_stm32f10x.c ****   /* Enable HSE */    
 689:../src/system_stm32f10x.c ****   RCC->CR |= ((uint32_t)RCC_CR_HSEON);
 690:../src/system_stm32f10x.c ****  
 691:../src/system_stm32f10x.c ****   /* Wait till HSE is ready and if Time out is reached exit */
 692:../src/system_stm32f10x.c ****   do
 693:../src/system_stm32f10x.c ****   {
 694:../src/system_stm32f10x.c ****     HSEStatus = RCC->CR & RCC_CR_HSERDY;
ARM GAS  /tmp/ccKn6e2L.s 			page 19


 695:../src/system_stm32f10x.c ****     StartUpCounter++;  
 696:../src/system_stm32f10x.c ****   } while((HSEStatus == 0) && (StartUpCounter != HSE_STARTUP_TIMEOUT));
 697:../src/system_stm32f10x.c **** 
 698:../src/system_stm32f10x.c ****   if ((RCC->CR & RCC_CR_HSERDY) != RESET)
 699:../src/system_stm32f10x.c ****   {
 700:../src/system_stm32f10x.c ****     HSEStatus = (uint32_t)0x01;
 701:../src/system_stm32f10x.c ****   }
 702:../src/system_stm32f10x.c ****   else
 703:../src/system_stm32f10x.c ****   {
 704:../src/system_stm32f10x.c ****     HSEStatus = (uint32_t)0x00;
 705:../src/system_stm32f10x.c ****   }  
 706:../src/system_stm32f10x.c **** 
 707:../src/system_stm32f10x.c ****   if (HSEStatus == (uint32_t)0x01)
 708:../src/system_stm32f10x.c ****   {
 709:../src/system_stm32f10x.c ****     /* Enable Prefetch Buffer */
 710:../src/system_stm32f10x.c ****     FLASH->ACR |= FLASH_ACR_PRFTBE;
 711:../src/system_stm32f10x.c **** 
 712:../src/system_stm32f10x.c ****     /* Flash 1 wait state */
 713:../src/system_stm32f10x.c ****     FLASH->ACR &= (uint32_t)((uint32_t)~FLASH_ACR_LATENCY);
 714:../src/system_stm32f10x.c ****     FLASH->ACR |= (uint32_t)FLASH_ACR_LATENCY_1;    
 715:../src/system_stm32f10x.c ****  
 716:../src/system_stm32f10x.c ****     /* HCLK = SYSCLK */
 717:../src/system_stm32f10x.c ****     RCC->CFGR |= (uint32_t)RCC_CFGR_HPRE_DIV1;
 718:../src/system_stm32f10x.c ****       
 719:../src/system_stm32f10x.c ****     /* PCLK2 = HCLK */
 720:../src/system_stm32f10x.c ****     RCC->CFGR |= (uint32_t)RCC_CFGR_PPRE2_DIV1;
 721:../src/system_stm32f10x.c ****     
 722:../src/system_stm32f10x.c ****     /* PCLK1 = HCLK */
 723:../src/system_stm32f10x.c ****     RCC->CFGR |= (uint32_t)RCC_CFGR_PPRE1_DIV1;
 724:../src/system_stm32f10x.c ****     
 725:../src/system_stm32f10x.c **** #ifdef STM32F10X_CL
 726:../src/system_stm32f10x.c ****     /* Configure PLLs ------------------------------------------------------*/
 727:../src/system_stm32f10x.c ****     
 728:../src/system_stm32f10x.c ****     /* PLL configuration: PLLCLK = PREDIV1 * 9 = 36 MHz */ 
 729:../src/system_stm32f10x.c ****     RCC->CFGR &= (uint32_t)~(RCC_CFGR_PLLXTPRE | RCC_CFGR_PLLSRC | RCC_CFGR_PLLMULL);
 730:../src/system_stm32f10x.c ****     RCC->CFGR |= (uint32_t)(RCC_CFGR_PLLXTPRE_PREDIV1 | RCC_CFGR_PLLSRC_PREDIV1 | 
 731:../src/system_stm32f10x.c ****                             RCC_CFGR_PLLMULL9); 
 732:../src/system_stm32f10x.c **** 
 733:../src/system_stm32f10x.c **** 	/*!< PLL2 configuration: PLL2CLK = (HSE / 5) * 8 = 40 MHz */
 734:../src/system_stm32f10x.c ****     /* PREDIV1 configuration: PREDIV1CLK = PLL2 / 10 = 4 MHz */
 735:../src/system_stm32f10x.c ****         
 736:../src/system_stm32f10x.c ****     RCC->CFGR2 &= (uint32_t)~(RCC_CFGR2_PREDIV2 | RCC_CFGR2_PLL2MUL |
 737:../src/system_stm32f10x.c ****                               RCC_CFGR2_PREDIV1 | RCC_CFGR2_PREDIV1SRC);
 738:../src/system_stm32f10x.c ****     RCC->CFGR2 |= (uint32_t)(RCC_CFGR2_PREDIV2_DIV5 | RCC_CFGR2_PLL2MUL8 |
 739:../src/system_stm32f10x.c ****                              RCC_CFGR2_PREDIV1SRC_PLL2 | RCC_CFGR2_PREDIV1_DIV10);
 740:../src/system_stm32f10x.c ****   
 741:../src/system_stm32f10x.c ****     /* Enable PLL2 */
 742:../src/system_stm32f10x.c ****     RCC->CR |= RCC_CR_PLL2ON;
 743:../src/system_stm32f10x.c ****     /* Wait till PLL2 is ready */
 744:../src/system_stm32f10x.c ****     while((RCC->CR & RCC_CR_PLL2RDY) == 0)
 745:../src/system_stm32f10x.c ****     {
 746:../src/system_stm32f10x.c ****     }
 747:../src/system_stm32f10x.c ****     
 748:../src/system_stm32f10x.c **** #else    
 749:../src/system_stm32f10x.c ****     /*  PLL configuration: PLLCLK = (HSE / 2) * 9 = 36 MHz */
 750:../src/system_stm32f10x.c ****     RCC->CFGR &= (uint32_t)((uint32_t)~(RCC_CFGR_PLLSRC | RCC_CFGR_PLLXTPRE | RCC_CFGR_PLLMULL));
 751:../src/system_stm32f10x.c ****     RCC->CFGR |= (uint32_t)(RCC_CFGR_PLLSRC_HSE | RCC_CFGR_PLLXTPRE_HSE_Div2 | RCC_CFGR_PLLMULL9);
ARM GAS  /tmp/ccKn6e2L.s 			page 20


 752:../src/system_stm32f10x.c **** #endif /* STM32F10X_CL */
 753:../src/system_stm32f10x.c **** 
 754:../src/system_stm32f10x.c ****     /* Enable PLL */
 755:../src/system_stm32f10x.c ****     RCC->CR |= RCC_CR_PLLON;
 756:../src/system_stm32f10x.c **** 
 757:../src/system_stm32f10x.c ****     /* Wait till PLL is ready */
 758:../src/system_stm32f10x.c ****     while((RCC->CR & RCC_CR_PLLRDY) == 0)
 759:../src/system_stm32f10x.c ****     {
 760:../src/system_stm32f10x.c ****     }
 761:../src/system_stm32f10x.c **** 
 762:../src/system_stm32f10x.c ****     /* Select PLL as system clock source */
 763:../src/system_stm32f10x.c ****     RCC->CFGR &= (uint32_t)((uint32_t)~(RCC_CFGR_SW));
 764:../src/system_stm32f10x.c ****     RCC->CFGR |= (uint32_t)RCC_CFGR_SW_PLL;    
 765:../src/system_stm32f10x.c **** 
 766:../src/system_stm32f10x.c ****     /* Wait till PLL is used as system clock source */
 767:../src/system_stm32f10x.c ****     while ((RCC->CFGR & (uint32_t)RCC_CFGR_SWS) != (uint32_t)0x08)
 768:../src/system_stm32f10x.c ****     {
 769:../src/system_stm32f10x.c ****     }
 770:../src/system_stm32f10x.c ****   }
 771:../src/system_stm32f10x.c ****   else
 772:../src/system_stm32f10x.c ****   { /* If HSE fails to start-up, the application will have wrong clock 
 773:../src/system_stm32f10x.c ****          configuration. User can add here some code to deal with this error */
 774:../src/system_stm32f10x.c ****   } 
 775:../src/system_stm32f10x.c **** }
 776:../src/system_stm32f10x.c **** #elif defined SYSCLK_FREQ_48MHz
 777:../src/system_stm32f10x.c **** /**
 778:../src/system_stm32f10x.c ****   * @brief  Sets System clock frequency to 48MHz and configure HCLK, PCLK2 
 779:../src/system_stm32f10x.c ****   *         and PCLK1 prescalers. 
 780:../src/system_stm32f10x.c ****   * @note   This function should be used only after reset.
 781:../src/system_stm32f10x.c ****   * @param  None
 782:../src/system_stm32f10x.c ****   * @retval None
 783:../src/system_stm32f10x.c ****   */
 784:../src/system_stm32f10x.c **** static void SetSysClockTo48(void)
 785:../src/system_stm32f10x.c **** {
 786:../src/system_stm32f10x.c ****   __IO uint32_t StartUpCounter = 0, HSEStatus = 0;
 787:../src/system_stm32f10x.c ****   
 788:../src/system_stm32f10x.c ****   /* SYSCLK, HCLK, PCLK2 and PCLK1 configuration ---------------------------*/    
 789:../src/system_stm32f10x.c ****   /* Enable HSE */    
 790:../src/system_stm32f10x.c ****   RCC->CR |= ((uint32_t)RCC_CR_HSEON);
 791:../src/system_stm32f10x.c ****  
 792:../src/system_stm32f10x.c ****   /* Wait till HSE is ready and if Time out is reached exit */
 793:../src/system_stm32f10x.c ****   do
 794:../src/system_stm32f10x.c ****   {
 795:../src/system_stm32f10x.c ****     HSEStatus = RCC->CR & RCC_CR_HSERDY;
 796:../src/system_stm32f10x.c ****     StartUpCounter++;  
 797:../src/system_stm32f10x.c ****   } while((HSEStatus == 0) && (StartUpCounter != HSE_STARTUP_TIMEOUT));
 798:../src/system_stm32f10x.c **** 
 799:../src/system_stm32f10x.c ****   if ((RCC->CR & RCC_CR_HSERDY) != RESET)
 800:../src/system_stm32f10x.c ****   {
 801:../src/system_stm32f10x.c ****     HSEStatus = (uint32_t)0x01;
 802:../src/system_stm32f10x.c ****   }
 803:../src/system_stm32f10x.c ****   else
 804:../src/system_stm32f10x.c ****   {
 805:../src/system_stm32f10x.c ****     HSEStatus = (uint32_t)0x00;
 806:../src/system_stm32f10x.c ****   }  
 807:../src/system_stm32f10x.c **** 
 808:../src/system_stm32f10x.c ****   if (HSEStatus == (uint32_t)0x01)
ARM GAS  /tmp/ccKn6e2L.s 			page 21


 809:../src/system_stm32f10x.c ****   {
 810:../src/system_stm32f10x.c ****     /* Enable Prefetch Buffer */
 811:../src/system_stm32f10x.c ****     FLASH->ACR |= FLASH_ACR_PRFTBE;
 812:../src/system_stm32f10x.c **** 
 813:../src/system_stm32f10x.c ****     /* Flash 1 wait state */
 814:../src/system_stm32f10x.c ****     FLASH->ACR &= (uint32_t)((uint32_t)~FLASH_ACR_LATENCY);
 815:../src/system_stm32f10x.c ****     FLASH->ACR |= (uint32_t)FLASH_ACR_LATENCY_1;    
 816:../src/system_stm32f10x.c ****  
 817:../src/system_stm32f10x.c ****     /* HCLK = SYSCLK */
 818:../src/system_stm32f10x.c ****     RCC->CFGR |= (uint32_t)RCC_CFGR_HPRE_DIV1;
 819:../src/system_stm32f10x.c ****       
 820:../src/system_stm32f10x.c ****     /* PCLK2 = HCLK */
 821:../src/system_stm32f10x.c ****     RCC->CFGR |= (uint32_t)RCC_CFGR_PPRE2_DIV1;
 822:../src/system_stm32f10x.c ****     
 823:../src/system_stm32f10x.c ****     /* PCLK1 = HCLK */
 824:../src/system_stm32f10x.c ****     RCC->CFGR |= (uint32_t)RCC_CFGR_PPRE1_DIV2;
 825:../src/system_stm32f10x.c ****     
 826:../src/system_stm32f10x.c **** #ifdef STM32F10X_CL
 827:../src/system_stm32f10x.c ****     /* Configure PLLs ------------------------------------------------------*/
 828:../src/system_stm32f10x.c ****     /* PLL2 configuration: PLL2CLK = (HSE / 5) * 8 = 40 MHz */
 829:../src/system_stm32f10x.c ****     /* PREDIV1 configuration: PREDIV1CLK = PLL2 / 5 = 8 MHz */
 830:../src/system_stm32f10x.c ****         
 831:../src/system_stm32f10x.c ****     RCC->CFGR2 &= (uint32_t)~(RCC_CFGR2_PREDIV2 | RCC_CFGR2_PLL2MUL |
 832:../src/system_stm32f10x.c ****                               RCC_CFGR2_PREDIV1 | RCC_CFGR2_PREDIV1SRC);
 833:../src/system_stm32f10x.c ****     RCC->CFGR2 |= (uint32_t)(RCC_CFGR2_PREDIV2_DIV5 | RCC_CFGR2_PLL2MUL8 |
 834:../src/system_stm32f10x.c ****                              RCC_CFGR2_PREDIV1SRC_PLL2 | RCC_CFGR2_PREDIV1_DIV5);
 835:../src/system_stm32f10x.c ****   
 836:../src/system_stm32f10x.c ****     /* Enable PLL2 */
 837:../src/system_stm32f10x.c ****     RCC->CR |= RCC_CR_PLL2ON;
 838:../src/system_stm32f10x.c ****     /* Wait till PLL2 is ready */
 839:../src/system_stm32f10x.c ****     while((RCC->CR & RCC_CR_PLL2RDY) == 0)
 840:../src/system_stm32f10x.c ****     {
 841:../src/system_stm32f10x.c ****     }
 842:../src/system_stm32f10x.c ****     
 843:../src/system_stm32f10x.c ****    
 844:../src/system_stm32f10x.c ****     /* PLL configuration: PLLCLK = PREDIV1 * 6 = 48 MHz */ 
 845:../src/system_stm32f10x.c ****     RCC->CFGR &= (uint32_t)~(RCC_CFGR_PLLXTPRE | RCC_CFGR_PLLSRC | RCC_CFGR_PLLMULL);
 846:../src/system_stm32f10x.c ****     RCC->CFGR |= (uint32_t)(RCC_CFGR_PLLXTPRE_PREDIV1 | RCC_CFGR_PLLSRC_PREDIV1 | 
 847:../src/system_stm32f10x.c ****                             RCC_CFGR_PLLMULL6); 
 848:../src/system_stm32f10x.c **** #else    
 849:../src/system_stm32f10x.c ****     /*  PLL configuration: PLLCLK = HSE * 6 = 48 MHz */
 850:../src/system_stm32f10x.c ****     RCC->CFGR &= (uint32_t)((uint32_t)~(RCC_CFGR_PLLSRC | RCC_CFGR_PLLXTPRE | RCC_CFGR_PLLMULL));
 851:../src/system_stm32f10x.c ****     RCC->CFGR |= (uint32_t)(RCC_CFGR_PLLSRC_HSE | RCC_CFGR_PLLMULL6);
 852:../src/system_stm32f10x.c **** #endif /* STM32F10X_CL */
 853:../src/system_stm32f10x.c **** 
 854:../src/system_stm32f10x.c ****     /* Enable PLL */
 855:../src/system_stm32f10x.c ****     RCC->CR |= RCC_CR_PLLON;
 856:../src/system_stm32f10x.c **** 
 857:../src/system_stm32f10x.c ****     /* Wait till PLL is ready */
 858:../src/system_stm32f10x.c ****     while((RCC->CR & RCC_CR_PLLRDY) == 0)
 859:../src/system_stm32f10x.c ****     {
 860:../src/system_stm32f10x.c ****     }
 861:../src/system_stm32f10x.c **** 
 862:../src/system_stm32f10x.c ****     /* Select PLL as system clock source */
 863:../src/system_stm32f10x.c ****     RCC->CFGR &= (uint32_t)((uint32_t)~(RCC_CFGR_SW));
 864:../src/system_stm32f10x.c ****     RCC->CFGR |= (uint32_t)RCC_CFGR_SW_PLL;    
 865:../src/system_stm32f10x.c **** 
ARM GAS  /tmp/ccKn6e2L.s 			page 22


 866:../src/system_stm32f10x.c ****     /* Wait till PLL is used as system clock source */
 867:../src/system_stm32f10x.c ****     while ((RCC->CFGR & (uint32_t)RCC_CFGR_SWS) != (uint32_t)0x08)
 868:../src/system_stm32f10x.c ****     {
 869:../src/system_stm32f10x.c ****     }
 870:../src/system_stm32f10x.c ****   }
 871:../src/system_stm32f10x.c ****   else
 872:../src/system_stm32f10x.c ****   { /* If HSE fails to start-up, the application will have wrong clock 
 873:../src/system_stm32f10x.c ****          configuration. User can add here some code to deal with this error */
 874:../src/system_stm32f10x.c ****   } 
 875:../src/system_stm32f10x.c **** }
 876:../src/system_stm32f10x.c **** 
 877:../src/system_stm32f10x.c **** #elif defined SYSCLK_FREQ_56MHz
 878:../src/system_stm32f10x.c **** /**
 879:../src/system_stm32f10x.c ****   * @brief  Sets System clock frequency to 56MHz and configure HCLK, PCLK2 
 880:../src/system_stm32f10x.c ****   *         and PCLK1 prescalers. 
 881:../src/system_stm32f10x.c ****   * @note   This function should be used only after reset.
 882:../src/system_stm32f10x.c ****   * @param  None
 883:../src/system_stm32f10x.c ****   * @retval None
 884:../src/system_stm32f10x.c ****   */
 885:../src/system_stm32f10x.c **** static void SetSysClockTo56(void)
 886:../src/system_stm32f10x.c **** {
 887:../src/system_stm32f10x.c ****   __IO uint32_t StartUpCounter = 0, HSEStatus = 0;
 888:../src/system_stm32f10x.c ****   
 889:../src/system_stm32f10x.c ****   /* SYSCLK, HCLK, PCLK2 and PCLK1 configuration ---------------------------*/   
 890:../src/system_stm32f10x.c ****   /* Enable HSE */    
 891:../src/system_stm32f10x.c ****   RCC->CR |= ((uint32_t)RCC_CR_HSEON);
 892:../src/system_stm32f10x.c ****  
 893:../src/system_stm32f10x.c ****   /* Wait till HSE is ready and if Time out is reached exit */
 894:../src/system_stm32f10x.c ****   do
 895:../src/system_stm32f10x.c ****   {
 896:../src/system_stm32f10x.c ****     HSEStatus = RCC->CR & RCC_CR_HSERDY;
 897:../src/system_stm32f10x.c ****     StartUpCounter++;  
 898:../src/system_stm32f10x.c ****   } while((HSEStatus == 0) && (StartUpCounter != HSE_STARTUP_TIMEOUT));
 899:../src/system_stm32f10x.c **** 
 900:../src/system_stm32f10x.c ****   if ((RCC->CR & RCC_CR_HSERDY) != RESET)
 901:../src/system_stm32f10x.c ****   {
 902:../src/system_stm32f10x.c ****     HSEStatus = (uint32_t)0x01;
 903:../src/system_stm32f10x.c ****   }
 904:../src/system_stm32f10x.c ****   else
 905:../src/system_stm32f10x.c ****   {
 906:../src/system_stm32f10x.c ****     HSEStatus = (uint32_t)0x00;
 907:../src/system_stm32f10x.c ****   }  
 908:../src/system_stm32f10x.c **** 
 909:../src/system_stm32f10x.c ****   if (HSEStatus == (uint32_t)0x01)
 910:../src/system_stm32f10x.c ****   {
 911:../src/system_stm32f10x.c ****     /* Enable Prefetch Buffer */
 912:../src/system_stm32f10x.c ****     FLASH->ACR |= FLASH_ACR_PRFTBE;
 913:../src/system_stm32f10x.c **** 
 914:../src/system_stm32f10x.c ****     /* Flash 2 wait state */
 915:../src/system_stm32f10x.c ****     FLASH->ACR &= (uint32_t)((uint32_t)~FLASH_ACR_LATENCY);
 916:../src/system_stm32f10x.c ****     FLASH->ACR |= (uint32_t)FLASH_ACR_LATENCY_2;    
 917:../src/system_stm32f10x.c ****  
 918:../src/system_stm32f10x.c ****     /* HCLK = SYSCLK */
 919:../src/system_stm32f10x.c ****     RCC->CFGR |= (uint32_t)RCC_CFGR_HPRE_DIV1;
 920:../src/system_stm32f10x.c ****       
 921:../src/system_stm32f10x.c ****     /* PCLK2 = HCLK */
 922:../src/system_stm32f10x.c ****     RCC->CFGR |= (uint32_t)RCC_CFGR_PPRE2_DIV1;
ARM GAS  /tmp/ccKn6e2L.s 			page 23


 923:../src/system_stm32f10x.c ****     
 924:../src/system_stm32f10x.c ****     /* PCLK1 = HCLK */
 925:../src/system_stm32f10x.c ****     RCC->CFGR |= (uint32_t)RCC_CFGR_PPRE1_DIV2;
 926:../src/system_stm32f10x.c **** 
 927:../src/system_stm32f10x.c **** #ifdef STM32F10X_CL
 928:../src/system_stm32f10x.c ****     /* Configure PLLs ------------------------------------------------------*/
 929:../src/system_stm32f10x.c ****     /* PLL2 configuration: PLL2CLK = (HSE / 5) * 8 = 40 MHz */
 930:../src/system_stm32f10x.c ****     /* PREDIV1 configuration: PREDIV1CLK = PLL2 / 5 = 8 MHz */
 931:../src/system_stm32f10x.c ****         
 932:../src/system_stm32f10x.c ****     RCC->CFGR2 &= (uint32_t)~(RCC_CFGR2_PREDIV2 | RCC_CFGR2_PLL2MUL |
 933:../src/system_stm32f10x.c ****                               RCC_CFGR2_PREDIV1 | RCC_CFGR2_PREDIV1SRC);
 934:../src/system_stm32f10x.c ****     RCC->CFGR2 |= (uint32_t)(RCC_CFGR2_PREDIV2_DIV5 | RCC_CFGR2_PLL2MUL8 |
 935:../src/system_stm32f10x.c ****                              RCC_CFGR2_PREDIV1SRC_PLL2 | RCC_CFGR2_PREDIV1_DIV5);
 936:../src/system_stm32f10x.c ****   
 937:../src/system_stm32f10x.c ****     /* Enable PLL2 */
 938:../src/system_stm32f10x.c ****     RCC->CR |= RCC_CR_PLL2ON;
 939:../src/system_stm32f10x.c ****     /* Wait till PLL2 is ready */
 940:../src/system_stm32f10x.c ****     while((RCC->CR & RCC_CR_PLL2RDY) == 0)
 941:../src/system_stm32f10x.c ****     {
 942:../src/system_stm32f10x.c ****     }
 943:../src/system_stm32f10x.c ****     
 944:../src/system_stm32f10x.c ****    
 945:../src/system_stm32f10x.c ****     /* PLL configuration: PLLCLK = PREDIV1 * 7 = 56 MHz */ 
 946:../src/system_stm32f10x.c ****     RCC->CFGR &= (uint32_t)~(RCC_CFGR_PLLXTPRE | RCC_CFGR_PLLSRC | RCC_CFGR_PLLMULL);
 947:../src/system_stm32f10x.c ****     RCC->CFGR |= (uint32_t)(RCC_CFGR_PLLXTPRE_PREDIV1 | RCC_CFGR_PLLSRC_PREDIV1 | 
 948:../src/system_stm32f10x.c ****                             RCC_CFGR_PLLMULL7); 
 949:../src/system_stm32f10x.c **** #else     
 950:../src/system_stm32f10x.c ****     /* PLL configuration: PLLCLK = HSE * 7 = 56 MHz */
 951:../src/system_stm32f10x.c ****     RCC->CFGR &= (uint32_t)((uint32_t)~(RCC_CFGR_PLLSRC | RCC_CFGR_PLLXTPRE | RCC_CFGR_PLLMULL));
 952:../src/system_stm32f10x.c ****     RCC->CFGR |= (uint32_t)(RCC_CFGR_PLLSRC_HSE | RCC_CFGR_PLLMULL7);
 953:../src/system_stm32f10x.c **** 
 954:../src/system_stm32f10x.c **** #endif /* STM32F10X_CL */
 955:../src/system_stm32f10x.c **** 
 956:../src/system_stm32f10x.c ****     /* Enable PLL */
 957:../src/system_stm32f10x.c ****     RCC->CR |= RCC_CR_PLLON;
 958:../src/system_stm32f10x.c **** 
 959:../src/system_stm32f10x.c ****     /* Wait till PLL is ready */
 960:../src/system_stm32f10x.c ****     while((RCC->CR & RCC_CR_PLLRDY) == 0)
 961:../src/system_stm32f10x.c ****     {
 962:../src/system_stm32f10x.c ****     }
 963:../src/system_stm32f10x.c **** 
 964:../src/system_stm32f10x.c ****     /* Select PLL as system clock source */
 965:../src/system_stm32f10x.c ****     RCC->CFGR &= (uint32_t)((uint32_t)~(RCC_CFGR_SW));
 966:../src/system_stm32f10x.c ****     RCC->CFGR |= (uint32_t)RCC_CFGR_SW_PLL;    
 967:../src/system_stm32f10x.c **** 
 968:../src/system_stm32f10x.c ****     /* Wait till PLL is used as system clock source */
 969:../src/system_stm32f10x.c ****     while ((RCC->CFGR & (uint32_t)RCC_CFGR_SWS) != (uint32_t)0x08)
 970:../src/system_stm32f10x.c ****     {
 971:../src/system_stm32f10x.c ****     }
 972:../src/system_stm32f10x.c ****   }
 973:../src/system_stm32f10x.c ****   else
 974:../src/system_stm32f10x.c ****   { /* If HSE fails to start-up, the application will have wrong clock 
 975:../src/system_stm32f10x.c ****          configuration. User can add here some code to deal with this error */
 976:../src/system_stm32f10x.c ****   } 
 977:../src/system_stm32f10x.c **** }
 978:../src/system_stm32f10x.c **** 
 979:../src/system_stm32f10x.c **** #elif defined SYSCLK_FREQ_72MHz
ARM GAS  /tmp/ccKn6e2L.s 			page 24


 980:../src/system_stm32f10x.c **** /**
 981:../src/system_stm32f10x.c ****   * @brief  Sets System clock frequency to 72MHz and configure HCLK, PCLK2 
 982:../src/system_stm32f10x.c ****   *         and PCLK1 prescalers. 
 983:../src/system_stm32f10x.c ****   * @note   This function should be used only after reset.
 984:../src/system_stm32f10x.c ****   * @param  None
 985:../src/system_stm32f10x.c ****   * @retval None
 986:../src/system_stm32f10x.c ****   */
 987:../src/system_stm32f10x.c **** static void SetSysClockTo72(void)
 988:../src/system_stm32f10x.c **** {
 330              		.loc 1 988 0
 331              		.cfi_startproc
 332              		@ args = 0, pretend = 0, frame = 8
 333              		@ frame_needed = 0, uses_anonymous_args = 0
 334              		@ link register save eliminated.
 335 0144 82B0     		sub	sp, sp, #8	@,,
 336              	.LCFI4:
 337              		.cfi_def_cfa_offset 8
 989:../src/system_stm32f10x.c ****   __IO uint32_t StartUpCounter = 0, HSEStatus = 0;
 338              		.loc 1 989 0
 339 0146 0023     		movs	r3, #0	@ tmp173,
 340 0148 0193     		str	r3, [sp, #4]	@ tmp173, StartUpCounter
 341 014a 0023     		movs	r3, #0	@ tmp174,
 342 014c 0093     		str	r3, [sp]	@ tmp174, HSEStatus
 990:../src/system_stm32f10x.c ****   
 991:../src/system_stm32f10x.c ****   /* SYSCLK, HCLK, PCLK2 and PCLK1 configuration ---------------------------*/    
 992:../src/system_stm32f10x.c ****   /* Enable HSE */    
 993:../src/system_stm32f10x.c ****   RCC->CR |= ((uint32_t)RCC_CR_HSEON);
 343              		.loc 1 993 0
 344 014e 394A     		ldr	r2, .L26	@ D.5224,
 345 0150 384B     		ldr	r3, .L26	@ D.5224,
 346 0152 1B68     		ldr	r3, [r3]	@ D.5225, _8->CR
 347 0154 43F48033 		orr	r3, r3, #65536	@ D.5225, D.5225,
 348 0158 1360     		str	r3, [r2]	@ D.5225, _7->CR
 349              	.L19:
 994:../src/system_stm32f10x.c ****  
 995:../src/system_stm32f10x.c ****   /* Wait till HSE is ready and if Time out is reached exit */
 996:../src/system_stm32f10x.c ****   do
 997:../src/system_stm32f10x.c ****   {
 998:../src/system_stm32f10x.c ****     HSEStatus = RCC->CR & RCC_CR_HSERDY;
 350              		.loc 1 998 0 discriminator 2
 351 015a 364B     		ldr	r3, .L26	@ D.5224,
 352 015c 1B68     		ldr	r3, [r3]	@ D.5225, _12->CR
 353 015e 03F40033 		and	r3, r3, #131072	@ D.5225, D.5225,
 354 0162 0093     		str	r3, [sp]	@ D.5225, HSEStatus
 999:../src/system_stm32f10x.c ****     StartUpCounter++;  
 355              		.loc 1 999 0 discriminator 2
 356 0164 019B     		ldr	r3, [sp, #4]	@ D.5225, StartUpCounter
 357 0166 0133     		adds	r3, r3, #1	@ D.5225, D.5225,
 358 0168 0193     		str	r3, [sp, #4]	@ D.5225, StartUpCounter
1000:../src/system_stm32f10x.c ****   } while((HSEStatus == 0) && (StartUpCounter != HSE_STARTUP_TIMEOUT));
 359              		.loc 1 1000 0 discriminator 2
 360 016a 009B     		ldr	r3, [sp]	@ D.5225, HSEStatus
 361 016c 002B     		cmp	r3, #0	@ D.5225,
 362 016e 03D1     		bne	.L18	@,
 363              		.loc 1 1000 0 is_stmt 0 discriminator 1
 364 0170 019B     		ldr	r3, [sp, #4]	@ D.5225, StartUpCounter
 365 0172 B3F5A06F 		cmp	r3, #1280	@ D.5225,
ARM GAS  /tmp/ccKn6e2L.s 			page 25


 366 0176 F0D1     		bne	.L19	@,
 367              	.L18:
1001:../src/system_stm32f10x.c **** 
1002:../src/system_stm32f10x.c ****   if ((RCC->CR & RCC_CR_HSERDY) != RESET)
 368              		.loc 1 1002 0 is_stmt 1
 369 0178 2E4B     		ldr	r3, .L26	@ D.5224,
 370 017a 1B68     		ldr	r3, [r3]	@ D.5225, _21->CR
 371 017c 03F40033 		and	r3, r3, #131072	@ D.5225, D.5225,
 372 0180 002B     		cmp	r3, #0	@ D.5225,
 373 0182 02D0     		beq	.L20	@,
1003:../src/system_stm32f10x.c ****   {
1004:../src/system_stm32f10x.c ****     HSEStatus = (uint32_t)0x01;
 374              		.loc 1 1004 0
 375 0184 0123     		movs	r3, #1	@ tmp175,
 376 0186 0093     		str	r3, [sp]	@ tmp175, HSEStatus
 377 0188 01E0     		b	.L21	@
 378              	.L20:
1005:../src/system_stm32f10x.c ****   }
1006:../src/system_stm32f10x.c ****   else
1007:../src/system_stm32f10x.c ****   {
1008:../src/system_stm32f10x.c ****     HSEStatus = (uint32_t)0x00;
 379              		.loc 1 1008 0
 380 018a 0023     		movs	r3, #0	@ tmp176,
 381 018c 0093     		str	r3, [sp]	@ tmp176, HSEStatus
 382              	.L21:
1009:../src/system_stm32f10x.c ****   }  
1010:../src/system_stm32f10x.c **** 
1011:../src/system_stm32f10x.c ****   if (HSEStatus == (uint32_t)0x01)
 383              		.loc 1 1011 0
 384 018e 009B     		ldr	r3, [sp]	@ D.5225, HSEStatus
 385 0190 012B     		cmp	r3, #1	@ D.5225,
 386 0192 4BD1     		bne	.L25	@,
1012:../src/system_stm32f10x.c ****   {
1013:../src/system_stm32f10x.c ****     /* Enable Prefetch Buffer */
1014:../src/system_stm32f10x.c ****     FLASH->ACR |= FLASH_ACR_PRFTBE;
 387              		.loc 1 1014 0
 388 0194 284A     		ldr	r2, .L26+4	@ D.5226,
 389 0196 284B     		ldr	r3, .L26+4	@ D.5226,
 390 0198 1B68     		ldr	r3, [r3]	@ D.5225, _28->ACR
 391 019a 43F01003 		orr	r3, r3, #16	@ D.5225, D.5225,
 392 019e 1360     		str	r3, [r2]	@ D.5225, _27->ACR
1015:../src/system_stm32f10x.c **** 
1016:../src/system_stm32f10x.c ****     /* Flash 2 wait state */
1017:../src/system_stm32f10x.c ****     FLASH->ACR &= (uint32_t)((uint32_t)~FLASH_ACR_LATENCY);
 393              		.loc 1 1017 0
 394 01a0 254A     		ldr	r2, .L26+4	@ D.5226,
 395 01a2 254B     		ldr	r3, .L26+4	@ D.5226,
 396 01a4 1B68     		ldr	r3, [r3]	@ D.5225, _33->ACR
 397 01a6 23F00303 		bic	r3, r3, #3	@ D.5225, D.5225,
 398 01aa 1360     		str	r3, [r2]	@ D.5225, _32->ACR
1018:../src/system_stm32f10x.c ****     FLASH->ACR |= (uint32_t)FLASH_ACR_LATENCY_2;    
 399              		.loc 1 1018 0
 400 01ac 224A     		ldr	r2, .L26+4	@ D.5226,
 401 01ae 224B     		ldr	r3, .L26+4	@ D.5226,
 402 01b0 1B68     		ldr	r3, [r3]	@ D.5225, _38->ACR
 403 01b2 43F00203 		orr	r3, r3, #2	@ D.5225, D.5225,
 404 01b6 1360     		str	r3, [r2]	@ D.5225, _37->ACR
ARM GAS  /tmp/ccKn6e2L.s 			page 26


1019:../src/system_stm32f10x.c **** 
1020:../src/system_stm32f10x.c ****  
1021:../src/system_stm32f10x.c ****     /* HCLK = SYSCLK */
1022:../src/system_stm32f10x.c ****     RCC->CFGR |= (uint32_t)RCC_CFGR_HPRE_DIV1;
 405              		.loc 1 1022 0
 406 01b8 1E4A     		ldr	r2, .L26	@ D.5224,
 407 01ba 1E4B     		ldr	r3, .L26	@ D.5224,
 408 01bc 5B68     		ldr	r3, [r3, #4]	@ D.5225, _43->CFGR
 409 01be 5360     		str	r3, [r2, #4]	@ D.5225, _42->CFGR
1023:../src/system_stm32f10x.c ****       
1024:../src/system_stm32f10x.c ****     /* PCLK2 = HCLK */
1025:../src/system_stm32f10x.c ****     RCC->CFGR |= (uint32_t)RCC_CFGR_PPRE2_DIV1;
 410              		.loc 1 1025 0
 411 01c0 1C4A     		ldr	r2, .L26	@ D.5224,
 412 01c2 1C4B     		ldr	r3, .L26	@ D.5224,
 413 01c4 5B68     		ldr	r3, [r3, #4]	@ D.5225, _47->CFGR
 414 01c6 5360     		str	r3, [r2, #4]	@ D.5225, _46->CFGR
1026:../src/system_stm32f10x.c ****     
1027:../src/system_stm32f10x.c ****     /* PCLK1 = HCLK */
1028:../src/system_stm32f10x.c ****     RCC->CFGR |= (uint32_t)RCC_CFGR_PPRE1_DIV2;
 415              		.loc 1 1028 0
 416 01c8 1A4A     		ldr	r2, .L26	@ D.5224,
 417 01ca 1A4B     		ldr	r3, .L26	@ D.5224,
 418 01cc 5B68     		ldr	r3, [r3, #4]	@ D.5225, _51->CFGR
 419 01ce 43F48063 		orr	r3, r3, #1024	@ D.5225, D.5225,
 420 01d2 5360     		str	r3, [r2, #4]	@ D.5225, _50->CFGR
1029:../src/system_stm32f10x.c **** 
1030:../src/system_stm32f10x.c **** #ifdef STM32F10X_CL
1031:../src/system_stm32f10x.c ****     /* Configure PLLs ------------------------------------------------------*/
1032:../src/system_stm32f10x.c ****     /* PLL2 configuration: PLL2CLK = (HSE / 5) * 8 = 40 MHz */
1033:../src/system_stm32f10x.c ****     /* PREDIV1 configuration: PREDIV1CLK = PLL2 / 5 = 8 MHz */
1034:../src/system_stm32f10x.c ****         
1035:../src/system_stm32f10x.c ****     RCC->CFGR2 &= (uint32_t)~(RCC_CFGR2_PREDIV2 | RCC_CFGR2_PLL2MUL |
1036:../src/system_stm32f10x.c ****                               RCC_CFGR2_PREDIV1 | RCC_CFGR2_PREDIV1SRC);
1037:../src/system_stm32f10x.c ****     RCC->CFGR2 |= (uint32_t)(RCC_CFGR2_PREDIV2_DIV5 | RCC_CFGR2_PLL2MUL8 |
1038:../src/system_stm32f10x.c ****                              RCC_CFGR2_PREDIV1SRC_PLL2 | RCC_CFGR2_PREDIV1_DIV5);
1039:../src/system_stm32f10x.c ****   
1040:../src/system_stm32f10x.c ****     /* Enable PLL2 */
1041:../src/system_stm32f10x.c ****     RCC->CR |= RCC_CR_PLL2ON;
1042:../src/system_stm32f10x.c ****     /* Wait till PLL2 is ready */
1043:../src/system_stm32f10x.c ****     while((RCC->CR & RCC_CR_PLL2RDY) == 0)
1044:../src/system_stm32f10x.c ****     {
1045:../src/system_stm32f10x.c ****     }
1046:../src/system_stm32f10x.c ****     
1047:../src/system_stm32f10x.c ****    
1048:../src/system_stm32f10x.c ****     /* PLL configuration: PLLCLK = PREDIV1 * 9 = 72 MHz */ 
1049:../src/system_stm32f10x.c ****     RCC->CFGR &= (uint32_t)~(RCC_CFGR_PLLXTPRE | RCC_CFGR_PLLSRC | RCC_CFGR_PLLMULL);
1050:../src/system_stm32f10x.c ****     RCC->CFGR |= (uint32_t)(RCC_CFGR_PLLXTPRE_PREDIV1 | RCC_CFGR_PLLSRC_PREDIV1 | 
1051:../src/system_stm32f10x.c ****                             RCC_CFGR_PLLMULL9); 
1052:../src/system_stm32f10x.c **** #else    
1053:../src/system_stm32f10x.c ****     /*  PLL configuration: PLLCLK = HSE * 9 = 72 MHz */
1054:../src/system_stm32f10x.c ****     RCC->CFGR &= (uint32_t)((uint32_t)~(RCC_CFGR_PLLSRC | RCC_CFGR_PLLXTPRE |
 421              		.loc 1 1054 0
 422 01d4 174A     		ldr	r2, .L26	@ D.5224,
 423 01d6 174B     		ldr	r3, .L26	@ D.5224,
 424 01d8 5B68     		ldr	r3, [r3, #4]	@ D.5225, _56->CFGR
 425 01da 23F47C13 		bic	r3, r3, #4128768	@ D.5225, D.5225,
ARM GAS  /tmp/ccKn6e2L.s 			page 27


 426 01de 5360     		str	r3, [r2, #4]	@ D.5225, _55->CFGR
1055:../src/system_stm32f10x.c ****                                         RCC_CFGR_PLLMULL));
1056:../src/system_stm32f10x.c ****     RCC->CFGR |= (uint32_t)(RCC_CFGR_PLLSRC_HSE | RCC_CFGR_PLLMULL9);
 427              		.loc 1 1056 0
 428 01e0 144A     		ldr	r2, .L26	@ D.5224,
 429 01e2 144B     		ldr	r3, .L26	@ D.5224,
 430 01e4 5B68     		ldr	r3, [r3, #4]	@ D.5225, _61->CFGR
 431 01e6 43F4E813 		orr	r3, r3, #1900544	@ D.5225, D.5225,
 432 01ea 5360     		str	r3, [r2, #4]	@ D.5225, _60->CFGR
1057:../src/system_stm32f10x.c **** #endif /* STM32F10X_CL */
1058:../src/system_stm32f10x.c **** 
1059:../src/system_stm32f10x.c ****     /* Enable PLL */
1060:../src/system_stm32f10x.c ****     RCC->CR |= RCC_CR_PLLON;
 433              		.loc 1 1060 0
 434 01ec 114A     		ldr	r2, .L26	@ D.5224,
 435 01ee 114B     		ldr	r3, .L26	@ D.5224,
 436 01f0 1B68     		ldr	r3, [r3]	@ D.5225, _66->CR
 437 01f2 43F08073 		orr	r3, r3, #16777216	@ D.5225, D.5225,
 438 01f6 1360     		str	r3, [r2]	@ D.5225, _65->CR
1061:../src/system_stm32f10x.c **** 
1062:../src/system_stm32f10x.c ****     /* Wait till PLL is ready */
1063:../src/system_stm32f10x.c ****     while((RCC->CR & RCC_CR_PLLRDY) == 0)
 439              		.loc 1 1063 0
 440 01f8 00BF     		nop
 441              	.L23:
 442              		.loc 1 1063 0 is_stmt 0 discriminator 1
 443 01fa 0E4B     		ldr	r3, .L26	@ D.5224,
 444 01fc 1B68     		ldr	r3, [r3]	@ D.5225, _70->CR
 445 01fe 03F00073 		and	r3, r3, #33554432	@ D.5225, D.5225,
 446 0202 002B     		cmp	r3, #0	@ D.5225,
 447 0204 F9D0     		beq	.L23	@,
1064:../src/system_stm32f10x.c ****     {
1065:../src/system_stm32f10x.c ****     }
1066:../src/system_stm32f10x.c ****     
1067:../src/system_stm32f10x.c ****     /* Select PLL as system clock source */
1068:../src/system_stm32f10x.c ****     RCC->CFGR &= (uint32_t)((uint32_t)~(RCC_CFGR_SW));
 448              		.loc 1 1068 0 is_stmt 1
 449 0206 0B4A     		ldr	r2, .L26	@ D.5224,
 450 0208 0A4B     		ldr	r3, .L26	@ D.5224,
 451 020a 5B68     		ldr	r3, [r3, #4]	@ D.5225, _74->CFGR
 452 020c 23F00303 		bic	r3, r3, #3	@ D.5225, D.5225,
 453 0210 5360     		str	r3, [r2, #4]	@ D.5225, _73->CFGR
1069:../src/system_stm32f10x.c ****     RCC->CFGR |= (uint32_t)RCC_CFGR_SW_PLL;    
 454              		.loc 1 1069 0
 455 0212 084A     		ldr	r2, .L26	@ D.5224,
 456 0214 074B     		ldr	r3, .L26	@ D.5224,
 457 0216 5B68     		ldr	r3, [r3, #4]	@ D.5225, _79->CFGR
 458 0218 43F00203 		orr	r3, r3, #2	@ D.5225, D.5225,
 459 021c 5360     		str	r3, [r2, #4]	@ D.5225, _78->CFGR
1070:../src/system_stm32f10x.c **** 
1071:../src/system_stm32f10x.c ****     /* Wait till PLL is used as system clock source */
1072:../src/system_stm32f10x.c ****     while ((RCC->CFGR & (uint32_t)RCC_CFGR_SWS) != (uint32_t)0x08)
 460              		.loc 1 1072 0
 461 021e 00BF     		nop
 462              	.L24:
 463              		.loc 1 1072 0 is_stmt 0 discriminator 1
 464 0220 044B     		ldr	r3, .L26	@ D.5224,
ARM GAS  /tmp/ccKn6e2L.s 			page 28


 465 0222 5B68     		ldr	r3, [r3, #4]	@ D.5225, _83->CFGR
 466 0224 03F00C03 		and	r3, r3, #12	@ D.5225, D.5225,
 467 0228 082B     		cmp	r3, #8	@ D.5225,
 468 022a F9D1     		bne	.L24	@,
 469              	.L25:
1073:../src/system_stm32f10x.c ****     {
1074:../src/system_stm32f10x.c ****     }
1075:../src/system_stm32f10x.c ****   }
1076:../src/system_stm32f10x.c ****   else
1077:../src/system_stm32f10x.c ****   { /* If HSE fails to start-up, the application will have wrong clock 
1078:../src/system_stm32f10x.c ****          configuration. User can add here some code to deal with this error */
1079:../src/system_stm32f10x.c ****   }
1080:../src/system_stm32f10x.c **** }
 470              		.loc 1 1080 0 is_stmt 1
 471 022c 00BF     		nop
 472 022e 02B0     		add	sp, sp, #8	@,,
 473              	.LCFI5:
 474              		.cfi_def_cfa_offset 0
 475              		@ sp needed	@
 476 0230 7047     		bx	lr	@
 477              	.L27:
 478 0232 00BF     		.align	2
 479              	.L26:
 480 0234 00100240 		.word	1073876992
 481 0238 00200240 		.word	1073881088
 482              		.cfi_endproc
 483              	.LFE32:
 484              		.size	SetSysClockTo72, .-SetSysClockTo72
 485              	.Letext0:
 486              		.file 2 "/usr/local/gcc-arm-none-eabi-5_2-2015q4/arm-none-eabi/include/machine/_default_types.h"
 487              		.file 3 "/usr/local/gcc-arm-none-eabi-5_2-2015q4/arm-none-eabi/include/sys/_stdint.h"
 488              		.file 4 "../Libraries/CMSIS/CM3/CoreSupport/core_cm3.h"
 489              		.file 5 "../Libraries/CMSIS/CM3/DeviceSupport/ST/STM32F10x/stm32f10x.h"
